:100000000C9434000C9451000C9451000C94510049
:100010000C9451000C9451000C9451000C9451001C
:100020000C9451000C9451000C9451000C9451000C
:100030000C9451000C9451000C940F010C9451003D
:100040000C9451000C9451000C94E1000C9451005C
:100050000C9451000C9451000C9451000C945100DC
:100060000C9451000C94510011241FBECFEFD8E026
:10007000DEBFCDBF11E0A0E0B1E0EAEFF5E002C0E5
:1000800005900D92A83EB107D9F722E0A8EEB1E0A5
:1000900001C01D92AB31B207E1F70E9434010C940C
:1000A000FB020C94000010928900109288008BB122
:1000B0008F7C8BB91092160284E091E0909301013D
:1000C000809300010895EF92FF920F931F93CF93B7
:1000D000DF9300D000D01F92CDB7DEB79E012F5F17
:1000E0003F4F8901E0E04AE0E42EF12CEF5FB701D9
:1000F0000E94AF02805DD8018D938D01CB010097E6
:1001000011F0E53099F7E150F0E03196E20FF31F7E
:1001100082919091C00095FFFCCF8093C6002E176E
:100120003F07B1F70F900F900F900F900F90DF9156
:10013000CF911F910F91FF90EF900895FC01919145
:10014000992339F08091C00085FFFCCF9093C600C1
:10015000F6CF0895806480937C0080917A0080645B
:1001600080937A0080917A0086FDFCCF80917800A0
:10017000909179000895CF92DF92EF92FF92CF9302
:10018000DF93D82F0E94AA00C8E0C12CD12C7601A1
:100190008D2F0E94AA00C80ED91EE11CF11CC1506F
:1001A000B9F7D701C60123E0B695A795979587952E
:1001B0002A95D1F7DF91CF91FF90EF90DF90CF900C
:1001C00008951F920F920FB60F9211242F938F93C1
:1001D0009F93EF93FF939091C0002091C600809170
:1001E00010029C71C1F48F5F8F7190910F0298176C
:1001F00091F0E0911002F0E0E151FE4F20838093F6
:100200001002FF91EF919F918F912F910F900FBE50
:100210000F901F90189581E080931102F2CF1F92EA
:100220000F920FB60F9211248F939F93AF93BF93AA
:100230008091120290911302A0911402B0911502C4
:100240000196A11DB11D8093120290931302A093F9
:100250001402B0931502BF91AF919F918F910F90AF
:100260000FBE0F901F90189587B18C7F87B98AB108
:1002700080638AB98BB18F7C8BB980E480937C00DA
:1002800087E880937A0093E090937E001092C000FC
:100290001092C50087E68093C40086E08093C20078
:1002A00088E98093C100219A81E8809380008BE0E7
:1002B00080938100109289001092880082E084BDB2
:1002C00015BC16BC29EF27BD85BB80936E0095BD7C
:1002D000789488E191E00E949E0088E391E00E947A
:1002E0009E00412C512C3201812C912C54010AE0AA
:1002F00011E0C7ECD1E080911102882369F08FB73B
:10030000F8949091100290930F02109211028FBFF7
:1003100083E691E00E949E0090910F02809110026E
:10032000981799F1E0910F02F0E0E151FE4F8081C2
:1003300090910F029F5F9F7190930F028D3011F08B
:100340008A3059F43091EE012091ED013111DAC07B
:10035000222311F38EE991E0FBC08032E9F289306B
:10036000D9F290ED980F9A3068F4E091EE01E53003
:1003700048F491E09E0F9093EE01F0E0E851FE4FBB
:100380008083CACF1093ED01C7CF8FB7F894C09088
:100390001202D0901302E0901402F09015028FBF69
:1003A000D701C60188199909AA09BB09B7FD25C05B
:1003B00080E00E94BB004C0190931A0280931902C6
:1003C00081E00E94BB009093180280931702A090D6
:1003D0000201B0900301A818B90895012E5E3F4FA5
:1003E0002532310508F04FC00E94530046015701E5
:1003F00042E3840E911CA11CB11CD701C6018419D3
:100400009509A609B709B7FD76CF8CEC91E00E945B
:100410009E0080910201909103010E94630080ED93
:1004200091E00E949E008091190290911A020E9410
:10043000630086ED91E00E949E00809117029091EA
:1004400018020E9463008CED91E00E949E00809152
:10045000160290E00E94630082EE91E00E949E00EE
:1004600080910001909101010E949E0084EC91E036
:100470000E949E002601370184EF480E81E0581E3D
:10048000611C711C38CF1A141B0454F4883E93402D
:1004900060F00E945300D0930101C0930001A6CFE9
:1004A0004A97B8F35C985D9A02C05C9A5D98D50152
:1004B000B7FE04C0AA27BB27AA19BB0927E830E06A
:1004C0000E94E5022FEF33E040E050E00E94C302BB
:1004D00028583F4F2F3F310519F010F02FEF30E033
:1004E0003093890020938800209316028BE091E0DE
:1004F0001A141B0414F081E191E0909301018093A0
:10050000000174CFE8EEF1E0F12CE12C211122CFB3
:100510000E9DC0010F9D900D1124E19040EDE40E61
:10052000E80EF92EF11C2F5F3213F2CFE11484E0B4
:10053000F80608F00FCFF0920301E092020187E87D
:1005400091E00E949E00C7010E94630084EC91E04C
:100550000E949E001092EE011092ED01DDCEAA1BCA
:10056000BB1B51E107C0AA1FBB1FA617B70710F09E
:10057000A61BB70B881F991F5A95A9F780959095D0
:10058000BC01CD010895A1E21A2EAA1BBB1BFD01DF
:100590000DC0AA1FBB1FEE1FFF1FA217B307E40762
:1005A000F50720F0A21BB30BE40BF50B661F771FBA
:1005B000881F991F1A9469F760957095809590959A
:1005C0009B01AC01BD01CF0108950E94EC02B7FF71
:1005D0000895821B930B0895A29FB001B39FC001A1
:1005E000A39F700D811D1124911DB29F700D811D5F
:0A05F0001124911D0895F894FFCF27
:1005FA000401000250415241444F004142524952C3
:10060A000043455252415200436F6E74726F6C2020
:10061A00646520696C756D696E6163696F6E206CC3
:10062A006973746F2E0D0A00456E766961722073C4
:10063A006574706F696E742041444320646520308C
:10064A0020612031303233207920456E7465722E54
:10065A000D0A004572726F7220554152543B207246
:10066A0065656E7669617220656C20736574706F5A
:10067A00696E742E0D0A00536574706F696E74206A
:10068A0061637475616C697A61646F3A20004572BE
:10069A00726F723A20696E67726573617220756E45
:1006AA0020656E7465726F20646520302061203188
:1006BA003032332E0D0A00544F50450053503D003E
:1006CA002C4C44523D002C504F533D002C50574D5A
:0806DA003D002C4449523D0093
:00000001FF
