:100000000C943D000C9416080C9416080C941608D9
:100010000C9416080C9416080C9416080C941608E8
:100020000C9416080C9416080C9416080C943D07B2
:100030000C9416080C9416080C9416080C941608C8
:100040000C9416080C9416080C9416080C941608B8
:100050000C9416080C9416080C9416080C941608A8
:100060000C9416080C94160801000103800103018A
:100070000700103A0107010B800011241FBECFEFCB
:10008000D8E0DEBFCDBFE8E6F0E040E017C0B591B4
:10009000A59135912591059107FD0CC0959185910C
:1000A000EF01F92FE82F05900D92A217B307D9F7AA
:1000B000FE0104C01D92A217B307E1F7E937F40768
:0E00C00031F70E948F060C940408F894FFCFCD
:1000CE002020202020202020202020202020202022
:1000DE0000543A2D2D00543A45525200543A0043E2
:1000EE000020504D3A004D6564696F3A002D004571
:1000FE0073706572616E646F207072696D65726186
:10010E00206C6563747572612E0D0A004552524F54
:10011E0052204448543131207C20546F6461732046
:10012E006C61732073616C696461732061706167C7
:10013E00616461732E0D0A0054656D706572617491
:10014E007572613A20002043207C200043616C656B
:10015E00666163746F7220656E63656E6469646F49
:10016E00207C2056656E74696C61646F72206170BC
:10017E00616761646F0D0A0043616C65666163744B
:10018E006F72206170616761646F207C2056656EAE
:10019E0074696C61646F72206170616761646F0D68
:1001AE000A0043616C65666163746F7220617061F1
:1001BE006761646F207C2056656E74696C61646F34
:1001CE00722042414A4F3A2031204C45440D0A00DC
:1001DE0043616C65666163746F7220617061676103
:1001EE00646F207C2056656E74696C61646F72203A
:1001FE004D4544494F3A2032204C45440D0A0043A8
:10020E00616C65666163746F7220617061676164B1
:10021E006F207C2056656E74696C61646F7220412C
:10022E004C544F3A2033204C45440D0A000D0A50D1
:10023E00756E746F206D6564696F3A200020430DF2
:10024E000A43616C65666163746F723A2054203C98
:10025E00200020430D0A52616E676F206D65646940
:10026E006F3A20002061200020430D0A42616A6F20
:10027E00202831204C4544293A200020430D0A4DB8
:10028E006564696F202832204C4544293A200020AD
:10029E00430D0A416C746F202833204C4544293A93
:1002AE00206465736465200020430D0A000D0A2D3D
:1002BE002D2D204D454E552044452054454D50453D
:1002CE00524154555241202D2D2D0D0A0045736378
:1002DE0072696269722070756E746F206D656469E3
:1002EE006F20282D31302061203630292079207062
:1002FE00756C73617220456E7465722E0D0A005016
:10030E00726F74656363696F6E2044485431313A7D
:10031E002073652072656368617A616E2076616C08
:10032E006F726573206D61796F72657320646520DD
:10033E00343420432E0D0A00456A656D706C6F3A99
:10034E00203235207365677569646F2064652045BA
:10035E006E7465722E0D0A00723A207265737461A6
:10036E00757261722032322043207C206D3A2076E5
:10037E006572206D656E7520792072616E676F7380
:10038E000D0A00526574726F6365736F3A20626F67
:10039E00727261722064696769746F207C20457384
:1003AE00636170653A2063616E63656C617220658E
:1003BE006E74726164610D0A000D0A4572726F727D
:1003CE0020646520726563657063696F6E3A2045BF
:1003DE0073636170652079206573637269626972F7
:1003EE00206F7472612076657A2E0D0A000D0A4513
:1003FE006E74726164612063616E63656C616461C9
:10040E002E0D0A000D0A0056616C6F7220696E7611
:10041E00616C69646F2E2045736372696269722024
:10042E00756E20656E7465726F206465202D313097
:10043E0020612036302E0D0A0043616D62696F20F7
:10044E0072656368617A61646F3A2070756E746F5D
:10045E00206D6564696F2064656D61736961646F99
:10046E002063657263616E6F20006F207375706517
:10047E0072696F7220616C206D6178696D6F206496
:10048E00656C204448543131202835302043292EC4
:10049E000D0A005365207265717569657265207568
:1004AE006E206D617267656E206465203620432E66
:1004BE00204D6178696D6F207065726D6974696425
:1004CE006F3A20343420432E0D0A005365206D619F
:1004DE006E7469656E6520656C2070756E746F2024
:1004EE006D6564696F20656E200020432E0D0A0035
:1004FE000820080050756E746F206D6564696F205A
:10050E0061637475616C697A61646F3A2000507230
:10051E00696D657261206D65646963696F6E2065D2
:10052E006E203520736567756E646F732E0D0A002D
:10053E00CF93DF9300D0CDB7DEB78091C000882374
:10054E000CF04EC18091C0009091C6008C7149F0A4
:10055E0081E08093080167EC73E080E00E94B107B0
:10056E003FC19B3151F410920701109208016BEFBD
:10057E0073E080E00E94B10733C19D3019F09A30CC
:10058E0009F086C080910701811105C08091080194
:10059E00882309F425C162E174E080E00E94B1076E
:1005AE0050910701552331F0809100018D3221F0D9
:1005BE0060E003C060E001C061E0613029F45130B9
:1005CE0019F481E080930801462F80E090E016C078
:1005DE009C01220F331F880F991F880F991F880FB8
:1005EE00991F820F931FE42FF0E0E050FF4F208100
:1005FE0030E020533109820F931F4F5F451740F3B0
:10060E00613019F49195819591092091080121117C
:10061E0007C0863F2FEF92071CF08D3391053CF0FB
:10062E0065E174E080E00E94B10780E02CC09C017F
:10063E002A5F3F4F233331050CF167E474E080E00D
:10064E000E94B10768E774E080E00E94B10761EA9A
:10065E0074E080E00E94B10769ED74E080E00E94D2
:10066E00B10780910501909106010E94BF0668EFC7
:10067E0074E080E00E94B10780E005C0909306010F
:10068E008093050181E0109207011092080190C03D
:10069E00983011F09F3799F480910701882309F45F
:1006AE0084C090910801911182C0815080930701FE
:1006BE006EEF74E080E00E94B10780E079C09D3259
:1006CE00C1F4E0910701E11114C08091080181117C
:1006DE0010C081E08E0F80930701F0E0E050FF4FD5
:1006EE008DE280836BEF70E080E00E94B10780E0C6
:1006FE005FC080ED890F8A3078F5809107018823DD
:10070E0031F0209100012D3221F020E003C020E0D5
:10071E0001C021E0482F50E030E02E5F3F4F4217DE
:10072E005307ACF420910801211111C08F5F809303
:10073E000701FA01E050FF4F908399831A82BE01A0
:10074E006F5F7F4F80E80E94B10780E031C081E08B
:10075E008093080180E02CC0923711F0923581F41D
:10076E008091070181110CC080910801811108C090
:10077E0086E190E0909306018093050181E018C018
:10078E009D3611F09D3461F480910701811108C0EE
:10079E0080910801811104C00E94010780E008C009
:1007AE0081E08093080180E003C080E001C080E01A
:1007BE008823B1F062E075E080E00E94B10780917D
:1007CE000501909106010E94BF0666EB72E080E083
:1007DE000E94B1070E9483040E94DC050E94FF0460
:0A07EE000F900F90DF91CF91089556
:1007F8001F93CF93DF9300D000D00F92CDB7DEB711
:10080800FE01319685E0DF011D928A95E9F78BB1EB
:100818008B7F8BB98AB184608AB9BFEF29EF80E0FA
:10082800B15020408040E1F700C000008AB18B7FC2
:100838008AB995E39A95F1F7000080E00E94840751
:10084800882309F442C081E00E948407882309F4C0
:100858003FC080E00E9484078823E9F110E027C0A8
:1008680081E00E9484078823C9F1A5EDAA95F1F7D4
:100878000000812F86958695869590E0E1E0F0E06E
:10088800EC0FFD1FE80FF91F2081220F20834A9BE0
:1008980008C0E1E0F0E0EC0FFD1FE80FF91F216050
:1008A800208380E00E9484078823D9F01F5F1832D4
:1008B800B8F299812A818B813C81920F980F930F0E
:1008C8002D81921311C090E011C08FEF9FEF0EC0E1
:1008D8008FEF9FEF0BC08FEF9FEF08C08FEF9FEF59
:1008E80005C08FEF9FEF02C08FEF9FEF0F900F9023
:0E08F8000F900F900F90DF91CF911F910895F8
:1009060085B18E7F85B98091030190910401992369
:10091600ACF480E00E94C407809103019091040129
:10092600029631F46DEF70E080E00E94B107089501
:100936006AE171E080E00E94B107089566E471E023
:1009460080E00E94B10780910301909104010E940A
:10095600BF0664E571E080E00E94B1078091050161
:1009660090910601AC014650510920910301309146
:1009760004012417350764F480E00E94C40785B19A
:10098600816085B96AE571E080E00E94B10708954B
:10099600AC014A5F5F4F421753074CF080E00E945C
:1009A600C40766E871E080E00E94B1070895AC01D3
:1009B6004F5E5F4F421753074CF081E00E94C40719
:1009C60060EB71E080E00E94B10708954C968217B3
:1009D60093074CF082E00E94C4076EED71E080E060
:1009E6000E94B107089583E00E94C4076DE072E09B
:0809F60080E00E94B1070895A2
:1009FE006BE372E080E00E94B10780910501909157
:100A0E0006010E94BF066BE472E080E00E94B1070F
:100A1E00809105019091060106970E94BF0660E63F
:100A2E0072E080E00E94B10780910501909106016D
:100A3E0006970E94BF0662E772E080E00E94B1074F
:100A4E00809105019091060106960E94BF0666E709
:100A5E0072E080E00E94B10780910501909106013D
:100A6E0007960E94BF0662E772E080E00E94B1071F
:100A7E00809105019091060141960E94BF0669E89A
:100A8E0072E080E00E94B10780910501909106010D
:100A9E0042960E94BF0662E772E080E00E94B107B4
:100AAE0080910501909106014C960E94BF066DE95A
:100ABE0072E080E00E94B1078091050190910601DD
:100ACE004D960E94BF0666EB72E080E00E94B10771
:020ADE00089579
:100AE000FF920F931F93CF93DF9300D000D00F920C
:100AF000CDB7DEB78B01992354F42DE2FB0120839F
:100B0000EE27FF27E81BF90BFF24F39402C0FC013A
:100B1000F12C50E041E0450F9F01ADECBCEC0E9490
:100B2000E7079695879596958795969587959C0165
:100B3000220F331F880F991F880F991F880F991F45
:100B4000820F931F9F01281B390BC901A1E0B0E060
:100B5000AC0FBD1FA50FB11D805D8C939F01ADEC47
:100B6000BCEC0E94E707FC01F695E795F695E79542
:100B7000F695E795542F309769F60DC0D801AF0D63
:100B8000B11D4150E1E0F0E0EC0FFD1FE40FF11D5D
:100B900080818C93F3944111F1CFF801EF0DF11D99
:100BA00010820F900F900F900F900F90DF91CF91C8
:080BB0001F910F91FF900895C1
:100BB80080E80E94D7076EEC70E080E00E946D0725
:100BC80080E80E94D70780910301909104018E3F2D
:100BD8002FEF920731F46FED70E080E00E946D070F
:100BE80018C0992334F464EE70E080E00E946D0729
:100BF80010C06AEE70E080E00E946D0780910301EA
:100C0800909104010E94E0066DEE70E080E00E9481
:100C18006D076FEE70E080E00E946D07809105011E
:100C2800909106010E94E0066DEE70E080E00E945F
:100C38006D0780EC0E94D7076EEC70E080E00E94A0
:100C48006D0780EC0E94D70764EF70E080E00E9497
:100C58006D07809105019091060106970E94E006B4
:100C68006BEF70E080E00E946D0780910501909124
:100C7800060106960E94E0066DEE70E080E00E9494
:040C88006D07089557
:100C8C0085B1897F85B984B1866084B987B18F605D
:100C9C0087B988B1807F88B92FEF83EF91E021501D
:100CAC0080409040E1F700C0000083E00E945507AF
:100CBC008FE19EE40197F1F700C0000083E00E94F1
:100CCC00550787E592E00197F1F700C0000083E03B
:100CDC000E94550787E592E00197F1F700C00000EC
:100CEC0082E00E94550787EC90E00197F1F700C075
:100CFC00000088E20E94D70788E00E94D70781E0B5
:100D0C000E94D70786E00E94D7078CE00E94D70785
:020D1C00089538
:100D1E0085B18E7F85B984B1816084B98AB18B7FAC
:100D2E008AB90E94F6070E940F080E9446060E948A
:100D3E00DC050E9401076CE175E080E00E94B107BE
:100D4E000E949B0778940E949F0280910A0188233B
:100D5E00D1F310920A01F8940E94FC0390930401BF
:100D6E008093030178940E9483040E94DC05EBCFEC
:100D7E000F931F93CF93DF93CDB7DEB727970FB6A1
:100D8E00F894DEBF0FBECDBF8E010F5F1F4FB801AF
:100D9E000E947005B80180E80E94B10727960FB631
:100DAE00F894DEBF0FBECDBFDF91CF911F910F9193
:020DBE00089596
:100DC0000F931F93CF93DF93CDB7DEB727970FB65F
:100DD000F894DEBF0FBECDBF8E010F5F1F4FB8016D
:100DE0000E947005B80180E80E946D0727960FB633
:100DF000F894DEBF0FBECDBFDF91CF911F910F9151
:020E0000089553
:100E02006BEB72E080E00E94B1076BED72E080E074
:100E12000E94B1076DE073E080E00E94B10766E4D2
:100E220073E080E00E94B10766E673E080E00E9412
:100E3200B10761E973E080E00E94B1070E94FF04FC
:020E4200089511
:100E4400CF93C82F662321F085B1826085B903C092
:100E540085B18D7F85B98C2F82958F700E9455073F
:100E64008C2F0E94550787EC90E00197F1F700C0A2
:060E74000000CF9108957B
:100E7A001F920F920FB60F9211248F93809109013E
:100E8A008F5F80930901853029F41092090181E06E
:100E9A0080930A018F910F900FBE0F901F901895A3
:100EAA0098B1907F8F70892B88B985E08A95F1F780
:100EBA00000085B1846085B985E08A95F1F7000064
:100ECA0085B18B7F85B985E08A95F1F70000089591
:100EDA00CF92DF92EF926B01E82E07C061E00E9489
:100EEA0022078FEFC81AD80AE80AF6018491E7FCAC
:0E0EFA0080818111F3CFEF90DF90CF900895AB
:100F080090E007C09F5F943681F045E04A95F1F77D
:100F1800000049B142FB222720F930E0482F50E079
:0E0F28002417350779F781E0089580E00895D9
:100F360010928000E1E8F0E0108210928500109295
:100F4600840083E294EF909389008093880082E086
:0C0F560086BB80936F008CE080830895C0
:100F62009B01482F09C08091C00085FFFCCF909360
:100F7200C6002F5F3F4F4F4FF901949147FD90817B
:060F82009111F1CF08956A
:100F88009BB19F789BB9882319F09BB190619BB95D
:100F9800823018F09BB190629BB9833018F08BB106
:060FA80080648BB908957E
:100FAE00CF93C82F60E00E942207C150C23030F4A8
:100FBE008FE39FE10197F1F700C00000CF910895F4
:100FCE00A29FB001B39FC001A39F700D811D11247C
:0E0FDE00911DB29F700D811D1124911D08956B
:100FEC001092C50087E68093C4001092C00088E17F
:0C0FFC008093C10086E08093C20008953D
:10100800EC010E941B080E941A08CE010E941C08CD
:06101800CE010E94180841
:0E101E008BB18F788BB98AB180678AB908953B
:04102C000C94000020
:041030000E946500B5
:0210340008951D
:0210360008951B
:02103800089519
:02103A00FEFFB7
:02103C0016009C
:00000001FF
