:100000000C943D000C9467080C9467080C946708E6
:100010000C9467080C9467080C9467080C946708A4
:100020000C9467080C9467080C9467080C94740788
:100030000C9467080C9467080C9467080C94670884
:100040000C9467080C9467080C9467080C94670874
:100050000C9467080C9467080C9467080C94670864
:100060000C9467080C9467080100010380010301E8
:10007000070010DC0107010B800011241FBECFEF29
:10008000D8E0DEBFCDBFE8E6F0E040E017C0B591B4
:10009000A59135912591059107FD0CC0959185910C
:1000A000EF01F92FE82F05900D92A217B307D9F7AA
:1000B000FE0104C01D92A217B307E1F7E937F40768
:0E00C00031F70E949D060C945508F894FFCF6E
:1000CE002020202020202020202020202020202022
:1000DE0000543A2D2D00543A45525200543A0043E2
:1000EE000020504D3A004D6564696F3A002D004571
:1000FE0073706572616E646F207072696D65726186
:10010E00206C6563747572612E0D0A004552524F54
:10011E0052204448543131207C20546F6461732046
:10012E006C61732073616C696461732061706167C7
:10013E00616461732E0D0A0054656D706572617491
:10014E007572613A20002043207C200043616C656B
:10015E00666163746F7220656E63656E6469646F49
:10016E00207C2056656E74696C61646F72206170BC
:10017E00616761646F0D0A0043616C65666163744B
:10018E006F72206170616761646F207C2056656EAE
:10019E0074696C61646F72206170616761646F0D68
:1001AE000A0043616C65666163746F7220617061F1
:1001BE006761646F207C2056656E74696C61646F34
:1001CE00722042414A4F3A2031204C45442C205057
:1001DE00574D203530250D0A0043616C656661630D
:1001EE00746F72206170616761646F207C20566548
:1001FE006E74696C61646F72204D4544494F3A20AC
:10020E0032204C45442C2050574D203735250D0AB1
:10021E000043616C65666163746F72206170616723
:10022E0061646F207C2056656E74696C61646F72B8
:10023E0020414C544F3A2033204C45442C205057EB
:10024E004D20313030250D0A000D0A50756E746F39
:10025E00206D6564696F3A200020430D0A43616C7E
:10026E0065666163746F723A2054203C200020430F
:10027E000D0A52616E676F206D6564696F3A2000DA
:10028E002061200020430D0A42616A6F2028312030
:10029E004C4544293A200020430D0A4D6564696F90
:1002AE00202832204C4544293A200020430D0A4193
:1002BE006C746F202833204C4544293A20646573B2
:1002CE006465200020430D0A000D0A2D2D2D204DB2
:1002DE00454E552044452054454D504552415455A8
:1002EE005241202D2D2D0D0A0045736372696269EE
:1002FE00722070756E746F206D6564696F20282D85
:10030E00313020612036302920792070756C736170
:10031E007220456E7465722E0D0A0050726F7465F0
:10032E006363696F6E2044485431313A20736520FF
:10033E0072656368617A616E2076616C6F72657347
:10034E00206D61796F7265732064652034342043AB
:10035E002E0D0A00456A656D706C6F3A203235209D
:10036E007365677569646F20646520456E74657288
:10037E002E0D0A00723A2072657374617572617285
:10038E002032322043207C206D3A20766572206D1B
:10039E00656E7520792072616E676F730D0A00525B
:1003AE006574726F6365736F3A20626F72726172F9
:1003BE002064696769746F207C2045736361706582
:1003CE003A2063616E63656C617220656E74726152
:1003DE0064610D0A000D0A4572726F722064652009
:1003EE00726563657063696F6E3A20457363617001
:1003FE00652079206573637269626972206F747209
:10040E00612076657A2E0D0A000D0A456E747261B2
:10041E0064612063616E63656C6164612E0D0A0018
:10042E000D0A0056616C6F7220696E76616C69649C
:10043E006F2E20457363726962697220756E206536
:10044E006E7465726F206465202D31302061203608
:10045E00302E0D0A0043616D62696F20726563680C
:10046E00617A61646F3A2070756E746F206D656489
:10047E00696F2064656D61736961646F2063657275
:10048E0063616E6F20006F207375706572696F7295
:10049E0020616C206D6178696D6F2064656C2044FD
:1004AE0048543131202835302043292E0D0A00536F
:1004BE006520726571756965726520756E206D6156
:1004CE007267656E206465203620432E204D61785C
:1004DE00696D6F207065726D697469646F3A20344E
:1004EE003420432E0D0A005365206D616E746965CC
:1004FE006E6520656C2070756E746F206D65646915
:10050E006F20656E200020432E0D0A000820080083
:10051E0050756E746F206D6564696F2061637475BC
:10052E00616C697A61646F3A20005072696D657210
:10053E0061206D65646963696F6E20656E2035207C
:0C054E00736567756E646F732E0D0A00F4
:10055A00CF93DF9300D0CDB7DEB78091C000882358
:10056A000CF04EC18091C0009091C6008C7149F088
:10057A0081E08093080163EE73E080E00E94150831
:10058A003FC19B3151F4109207011092080167E1B3
:10059A0074E080E00E94150833C19D3019F09A304A
:1005AA0009F086C080910701811105C08091080178
:1005BA00882309F425C16EE274E080E00E941508E0
:1005CA0050910701552331F0809100018D3221F0BD
:1005DA0060E003C060E001C061E0613029F451309D
:1005EA0019F481E080930801462F80E090E016C05C
:1005FA009C01220F331F880F991F880F991F880F9C
:10060A00991F820F931FE42FF0E0E050FF4F2081E3
:10061A0030E020533109820F931F4F5F451740F393
:10062A00613019F491958195910920910801211160
:10063A0007C0863F2FEF92071CF08D3391053CF0DF
:10064A0061E374E080E00E94150880E02CC09C0100
:10065A002A5F3F4F233331050CF163E674E080E0F3
:10066A000E94150864E974E080E00E9415086DEBA9
:10067A0074E080E00E94150865EF74E080E00E9453
:10068A00150880910501909106010E94F60664E121
:10069A0075E080E00E94150880E005C0909306018D
:1006AA008093050181E0109207011092080190C021
:1006BA00983011F09F3799F480910701882309F443
:1006CA0084C090910801911182C0815080930701E2
:1006DA006AE175E080E00E94150880E079C09D32E9
:1006EA00C1F4E0910701E11114C080910801811160
:1006FA0010C081E08E0F80930701F0E0E050FF4FB9
:10070A008DE280836BEF70E080E00E94150880E044
:10071A005FC080ED890F8A3078F5809107018823C0
:10072A0031F0209100012D3221F020E003C020E0B9
:10073A0001C021E0482F50E030E02E5F3F4F4217C2
:10074A005307ACF420910801211111C08F5F8093E7
:10075A000701FA01E050FF4F908399831A82BE0184
:10076A006F5F7F4F80E80E94150880E031C081E00A
:10077A008093080180E02CC0923711F0923581F401
:10078A008091070181110CC080910801811108C074
:10079A0086E190E0909306018093050181E018C0FC
:1007AA009D3611F09D3461F480910701811108C0D2
:1007BA0080910801811104C00E94380780E008C0B6
:1007CA0081E08093080180E003C080E001C080E0FE
:1007DA008823B1F06EE175E080E00E9415088091EF
:1007EA000501909106010E94F60662ED72E080E032
:1007FA000E9415080E9491040E94EA050E940D05B4
:0A080A000F900F90DF91CF91089539
:100814001F93CF93DF9300D000D00F92CDB7DEB7F4
:10082400FE01319685E0DF011D928A95E9F78BB1CF
:100834008B7F8BB98AB184608AB9BFEF29EF80E0DE
:10084400B15020408040E1F700C000008AB18B7FA6
:100854008AB995E39A95F1F7000080E00E94D307E6
:10086400882309F442C081E00E94D307882309F455
:100874003FC080E00E94D3078823E9F110E027C03D
:1008840081E00E94D3078823C9F1A5EDAA95F1F769
:100894000000812F86958695869590E0E1E0F0E052
:1008A400EC0FFD1FE80FF91F2081220F20834A9BC4
:1008B40008C0E1E0F0E0EC0FFD1FE80FF91F216034
:1008C400208380E00E94D3078823D9F01F5F183269
:1008D400B8F299812A818B813C81920F980F930FF2
:1008E4002D81921311C090E011C08FEF9FEF0EC0C5
:1008F4008FEF9FEF0BC08FEF9FEF08C08FEF9FEF3D
:1009040005C08FEF9FEF02C08FEF9FEF0F900F9006
:0E0914000F900F900F90DF91CF911F910895DB
:1009220085B18E7F85B9809103019091040199234D
:10093200ACF480E00E94A40780910301909104012D
:10094200029631F46DEF70E080E00E941508089580
:100952006AE171E080E00E941508089566E471E0A2
:1009620080E00E94150880910301909104010E9489
:10097200F60664E571E080E00E94150880910501A9
:1009820090910601AC01465051092091030130912A
:1009920004012417350764F480E00E94A40785B19E
:1009A200816085B96AE571E080E00E9415080895CA
:1009B200AC014A5F5F4F421753074CF080E00E9440
:1009C200A40766E871E080E00E9415080895AC0172
:1009D2004F5E5F4F421753074CF081E00E94A4071D
:1009E20060EB71E080E00E94150808954C96821732
:1009F20093074CF082E00E94A40767EE71E080E06A
:100A02000E941508089583E00E94A4076FE172E036
:080A120080E00E941508089520
:100A1A0067E572E080E00E941508809105019091D7
:100A2A0006010E94F60667E672E080E00E94150859
:100A3A00809105019091060106970E94F6066CE7DF
:100A4A0072E080E00E9415088091050190910601EC
:100A5A0006970E94F6066EE872E080E00E9415088A
:100A6A00809105019091060106960E94F60662E9B8
:100A7A0072E080E00E9415088091050190910601BC
:100A8A0007960E94F6066EE872E080E00E9415085A
:100A9A00809105019091060141960E94F60665EA49
:100AAA0072E080E00E94150880910501909106018C
:100ABA0042960E94F6066EE872E080E00E941508EF
:100ACA0080910501909106014C960E94F60669EB09
:100ADA0072E080E00E94150880910501909106015C
:100AEA004D960E94F60662ED72E080E00E941508BB
:020AFA0008955D
:100AFC00FF920F931F93CF93DF9300D000D00F92F0
:100B0C00CDB7DEB78B01992354F42DE2FB01208382
:100B1C00EE27FF27E81BF90BFF24F39402C0FC011E
:100B2C00F12C50E041E0450F9F01ADECBCEC0E9474
:100B3C0038089695879596958795969587959C01F7
:100B4C00220F331F880F991F880F991F880F991F29
:100B5C00820F931F9F01281B390BC901A1E0B0E044
:100B6C00AC0FBD1FA50FB11D805D8C939F01ADEC2B
:100B7C00BCEC0E943808FC01F695E795F695E795D4
:100B8C00F695E795542F309769F60DC0D801AF0D47
:100B9C00B11D4150E1E0F0E0EC0FFD1FE40FF11D41
:100BAC0080818C93F3944111F1CFF801EF0DF11D7D
:100BBC0010820F900F900F900F900F90DF91CF91AC
:080BCC001F910F91FF900895A5
:100BD40080E80E9428086EEC70E080E00E94BC0768
:100BE40080E80E94280880910301909104018E3FBF
:100BF4002FEF920731F46FED70E080E00E94BC07A4
:100C040018C0992334F464EE70E080E00E94BC07BD
:100C140010C06AEE70E080E00E94BC07809103017E
:100C2400909104010E9417076DEE70E080E00E942D
:100C3400BC076FEE70E080E00E94BC078091050164
:100C4400909106010E9417076DEE70E080E00E940B
:100C5400BC0780EC0E9428086EEC70E080E00E94E3
:100C6400BC0780EC0E94280864EF70E080E00E94DA
:100C7400BC07809105019091060106970E94170711
:100C84006BEF70E080E00E94BC07809105019091B9
:100C9400060106960E9417076DEE70E080E00E9440
:040CA400BC070895EC
:100CA80085B1897F85B984B1866084B987B18F6041
:100CB80087B988B1807F88B92FEF83EF91E0215001
:100CC80080409040E1F700C0000083E00E948C075C
:100CD8008FE19EE40197F1F700C0000083E00E94D5
:100CE8008C0787E592E00197F1F700C0000083E0E8
:100CF8000E948C0787E592E00197F1F700C0000099
:100D080082E00E948C0787EC90E00197F1F700C021
:100D1800000088E20E94280888E00E94280881E0F4
:100D28000E94280886E00E9428088CE00E94280873
:020D380008951C
:100D3A000E94000885B18E7F85B984B1816084B92B
:100D4A008AB18B7F8AB90E9447080E9460080E9474
:100D5A0054060E94EA050E94380768E375E080E0BD
:100D6A000E9415080E94EA0778940E94AD028091B9
:100D7A000A018823D1F310920A01F8940E940A0406
:100D8A00909304018093030178940E9491040E9435
:040D9A00EA05EBCFAC
:100D9E009FEF980F923088F0E0EBF0E090819F7C0F
:100DAE0090831092B400811104C08BB1877F8BB9F0
:100DBE0008958BB188608BB90895813021F48FE747
:100DCE008093B40003C08FEB8093B400E0EBF0E0AF
:0E0DDE0080818F7E8083808180628083089573
:100DEC000F931F93CF93DF93CDB7DEB727970FB633
:100DFC00F894DEBF0FBECDBF8E010F5F1F4FB80141
:100E0C000E947E05B80180E80E94150827960FB64F
:100E1C00F894DEBF0FBECDBFDF91CF911F910F9124
:020E2C00089527
:100E2E000F931F93CF93DF93CDB7DEB727970FB6F0
:100E3E00F894DEBF0FBECDBF8E010F5F1F4FB801FE
:100E4E000E947E05B80180E80E94BC0727960FB667
:100E5E00F894DEBF0FBECDBFDF91CF911F910F91E2
:020E6E000895E5
:100E700067ED72E080E00E94150867EF72E080E0A5
:100E80000E94150869E273E080E00E94150862E69E
:100E900073E080E00E94150862E873E080E00E9441
:100EA00015086DEA73E080E00E9415080E940D05A8
:020EB0000895A3
:100EB200CF93C82F662321F085B1826085B903C024
:100EC20085B18D7F85B98C2F82958F700E948C079A
:100ED2008C2F0E948C0787EC90E00197F1F700C0FD
:060EE2000000CF9108950D
:100EE8001F920F920FB60F9211248F9380910901D0
:100EF8008F5F80930901853029F41092090181E000
:100F080080930A018F910F900FBE0F901F90189534
:100F180098B1907F8F70892B88B985E08A95F1F711
:100F2800000085B1846085B985E08A95F1F70000F5
:100F380085B18B7F85B985E08A95F1F70000089522
:100F4800CF93C82F0E94CF068BB18F788BB9CC2353
:100F580019F08BB180618BB9C23018F08BB1806207
:100F68008BB9C33018F08BB180648BB9CF910895D9
:100F7800CF92DF92EF926B01E82E07C061E00E94EA
:100F880059078FEFC81AD80AE80AF6018491E7FCD6
:0E0F980080818111F3CFEF90DF90CF9008950C
:100FA60090E007C09F5F943681F045E04A95F1F7DF
:100FB600000049B142FB222720F930E0482F50E0DB
:0E0FC6002417350779F781E0089580E008953B
:100FD40010928000E1E8F0E01082109285001092F7
:100FE400840083E294EF909389008093880082E0E8
:0C0FF40086BB80936F008CE08083089522
:101000008BB1877F8BB98AB188608AB983E080937E
:10101000B000E1EBF0E010821092B2001092B40048
:0A1020001092700084E080830895B0
:10102A009B01482F09C08091C00085FFFCCF909397
:10103A00C6002F5F3F4F4F4FF901949147FD9081B2
:06104A009111F1CF0895A1
:10105000CF93C82F60E00E945907C150C23030F4CE
:101060008FE39FE10197F1F700C00000CF91089551
:10107000A29FB001B39FC001A39F700D811D1124D9
:0E108000911DB29F700D811D1124911D0895C8
:10108E001092C50087E68093C4001092C00088E1DC
:0C109E008093C10086E08093C20008959A
:1010AA00EC010E946C080E946B08CE010E946D0838
:0610BA00CE010E9469084E
:0E10C0008BB18F788BB98AB180678AB9089599
:0410CE000C9400007E
:0410D2000E94650013
:0210D60008957B
:0210D800089579
:0210DA00089577
:0210DC00FEFF15
:0210DE001600FA
:00000001FF
