:100000000C943D000C9472070C9472070C947207C8
:100010000C9472070C9472070C9472070C9472077C
:100020000C9472070C9472070C9472070C94990646
:100030000C9472070C9472070C9472070C9472075C
:100040000C9472070C9472070C9472070C9472074C
:100050000C9472070C9472070C9472070C9472073C
:100060000C9472070C9472070100010380010301D4
:1000700007000EF20107010B800011241FBECFEF15
:10008000D8E0DEBFCDBFE8E6F0E040E017C0B591B4
:10009000A59135912591059107FD0CC0959185910C
:1000A000EF01F92FE82F05900D92A217B307D9F7AA
:1000B000FE0104C01D92A217B307E1F7E937F40768
:0E00C00031F70E94F0050C946007F894FFCF12
:1000CE002020202020202020202020202020202022
:1000DE0000543A2D2D00543A45525200543A0043E2
:1000EE000020504D3A004D6564696F3A002D004571
:1000FE0073706572616E646F207072696D65726186
:10010E00206C6563747572612E0D0A004552524F54
:10011E0052204448543131207C20546F6461732046
:10012E006C61732073616C696461732061706167C7
:10013E00616461732E0D0A0054656D706572617491
:10014E007572613A20002043207C200043616C656B
:10015E00666163746F7220656E63656E6469646F49
:10016E00207C2056656E74696C61646F72206170BC
:10017E00616761646F0D0A0043616C65666163744B
:10018E006F72206170616761646F207C2056656EAE
:10019E0074696C61646F72206170616761646F0D68
:1001AE000A0043616C65666163746F7220617061F1
:1001BE006761646F207C2056656E74696C61646F34
:1001CE00722042414A4F3A2031204C45440D0A00DC
:1001DE0043616C65666163746F7220617061676103
:1001EE00646F207C2056656E74696C61646F72203A
:1001FE004D4544494F3A2032204C45440D0A0043A8
:10020E00616C65666163746F7220617061676164B1
:10021E006F207C2056656E74696C61646F7220412C
:10022E004C544F3A2033204C45440D0A000D0A50D1
:10023E00756E746F206D6564696F3A200020430DF2
:10024E000A43616C65666163746F723A2054203C98
:10025E00200020430D0A52616E676F206D65646940
:10026E006F3A20002061200020430D0A42616A6F20
:10027E00202831204C4544293A200020430D0A4DB8
:10028E006564696F202832204C4544293A200020AD
:10029E00430D0A416C746F202833204C4544293A93
:1002AE00206465736465200020430D0A000D0A2D3D
:1002BE002D2D204D454E552044452054454D50453D
:1002CE00524154555241202D2D2D0D0A0045736378
:1002DE0072696269722070756E746F206D656469E3
:1002EE006F20282D31302061203630292079207062
:1002FE00756C73617220456E7465722E0D0A004521
:10030E006A656D706C6F3A2032352073656775695A
:10031E00646F20646520456E7465722E0D0A00723E
:10032E003A207265737461757261722032322043A5
:10033E00207C206D3A20766572206D656E75207971
:10034E002072616E676F730D0A00526574726F636F
:10035E0065736F3A20626F727261722064696769A9
:10036E00746F207C204573636170653A2063616E03
:10037E0063656C617220656E74726164610D0A0052
:10038E000D0A4572726F7220646520726563657026
:10039E0063696F6E3A2045736361706520792065DD
:1003AE0073637269626972206F7472612076657A06
:1003BE002E0D0A000D0A456E747261646120636130
:1003CE006E63656C6164612E0D0A000D0A00566144
:1003DE006C6F7220696E76616C69646F2E20457346
:1003EE0063726962697220756E20656E7465726FD4
:1003FE00206465202D313020612036302E0D0A000C
:10040E000820080050756E746F206D6564696F204A
:10041E0061637475616C697A61646F3A2000507221
:10042E00696D657261206D65646963696F6E2065C3
:10043E006E203520736567756E646F732E0D0A001E
:10044E00CF93DF9300D0CDB7DEB78091C000882365
:10045E000CF027C18091C0009091C6008C7149F0BC
:10046E0081E0809308016EE873E080E00E940D0742
:10047E0018C19B3151F4109207011092080162ECE1
:10048E0073E080E00E940D070CC19D3019F09A3088
:10049E0009F05FC080910701811105C080910801AC
:1004AE00882309F4FEC069ED73E080E00E940D0719
:1004BE0050910701552331F0809100018D3221F0CA
:1004CE0060E003C060E001C061E0613029F45130AA
:1004DE0019F481E080930801462F80E090E016C069
:1004EE009C01220F331F880F991F880F991F880FA9
:1004FE00991F820F931FE42FF0E0E050FF4F2081F1
:10050E0030E020533109820F931F4F5F451740F3A0
:10051E00613019F49195819591092091080121116D
:10052E0007C0863F2FEF92071CF08D3391053CF0EC
:10053E006CED73E080E00E940D0780E005C09093A3
:10054E0006018093050181E01092070110920801C7
:10055E0090C0983011F09F3799F48091070188234D
:10056E0009F484C090910801911182C0815080934A
:10057E0007016EE074E080E00E940D0780E079C014
:10058E009D32C1F4E0910701E11114C08091080180
:10059E00811110C081E08E0F80930701F0E0E050D2
:1005AE00FF4F8DE280836BEF70E080E00E940D07BD
:1005BE0080E05FC080ED890F8A3078F58091070169
:1005CE00882331F0209100012D3221F020E003C06C
:1005DE0020E001C021E0482F50E030E02E5F3F4F79
:1005EE0042175307ACF420910801211111C08F5FFF
:1005FE0080930701FA01E050FF4F908399831A828E
:10060E00BE016F5F7F4F80E80E940D0780E031C012
:10061E0081E08093080180E02CC0923711F0923572
:10062E0081F48091070181110CC080910801811124
:10063E0008C086E190E0909306018093050181E069
:10064E0018C09D3611F09D3461F48091070181111F
:10065E0008C080910801811104C00E94620680E0EA
:10066E0008C081E08093080180E003C080E001C0F3
:10067E0080E08823B1F062E174E080E00E940D0713
:10068E0080910501909106010E94200666EB72E0B2
:10069E0080E00E940D070E94E4030E943D050E9427
:0C06AE0060040F900F90DF91CF91089531
:1006BA001F93CF93DF9300D000D00F92CDB7DEB750
:1006CA00FE01319685E0DF011D928A95E9F78BB12B
:1006DA008B7F8BB98AB184608AB9BFEF29EF80E03A
:1006EA00B15020408040E1F700C000008AB18B7F02
:1006FA008AB995E39A95F1F7000080E00E94E00636
:10070A00882309F442C081E00E94E006882309F4A4
:10071A003FC080E00E94E0068823E9F110E027C08C
:10072A0081E00E94E0068823C9F1A5EDAA95F1F7B8
:10073A000000812F86958695869590E0E1E0F0E0AD
:10074A00EC0FFD1FE80FF91F2081220F20834A9B1F
:10075A0008C0E1E0F0E0EC0FFD1FE80FF91F21608F
:10076A00208380E00E94E0068823D9F01F5F1832B8
:10077A00B8F299812A818B813C81920F980F930F4D
:10078A002D81921311C090E011C08FEF9FEF0EC020
:10079A008FEF9FEF0BC08FEF9FEF08C08FEF9FEF98
:1007AA0005C08FEF9FEF02C08FEF9FEF0F900F9062
:0E07BA000F900F900F90DF91CF911F91089537
:1007C80085B18E7F85B980910301909104019923A9
:1007D800ACF480E00E94200780910301909104010D
:1007E800029631F46DEF70E080E00E940D070895E5
:1007F8006AE171E080E00E940D07089566E471E007
:1008080080E00E940D0780910301909104010E94ED
:10081800200664E571E080E00E940D0780910501E3
:1008280090910601AC014650510920910301309185
:1008380004012417350764F480E00E94200785B17D
:10084800816085B96AE571E080E00E940D0708952E
:10085800AC014A5F5F4F421753074CF080E00E949B
:10086800200766E871E080E00E940D070895AC015A
:100878004F5E5F4F421753074CF081E00E942007FC
:1008880060EB71E080E00E940D0708954C96821796
:1008980093074CF082E00E9420076EED71E080E043
:1008A8000E940D07089583E00E9420076DE072E022
:0808B80080E00E940D07089585
:1008C0006BE372E080E00E940D078091050190913A
:1008D00006010E9420066BE472E080E00E940D0792
:1008E000809105019091060106970E94200660E61E
:1008F00072E080E00E940D07809105019091060151
:1009000006970E94200662E772E080E00E940D07D1
:10091000809105019091060106960E94200666E7E7
:1009200072E080E00E940D07809105019091060120
:1009300007960E94200662E772E080E00E940D07A1
:10094000809105019091060141960E94200669E878
:1009500072E080E00E940D078091050190910601F0
:1009600042960E94200662E772E080E00E940D0736
:1009700080910501909106014C960E9420066DE938
:1009800072E080E00E940D078091050190910601C0
:100990004D960E94200666EB72E080E00E940D07F3
:0209A0000895B8
:1009A200FF920F931F93CF93DF9300D000D00F924B
:1009B200CDB7DEB78B01992354F42DE2FB012083DE
:1009C200EE27FF27E81BF90BFF24F39402C0FC017A
:1009D200F12C50E041E0450F9F01ADECBCEC0E94D0
:1009E20043079695879596958795969587959C0149
:1009F200220F331F880F991F880F991F880F991F85
:100A0200820F931F9F01281B390BC901A1E0B0E09F
:100A1200AC0FBD1FA50FB11D805D8C939F01ADEC86
:100A2200BCEC0E944307FC01F695E795F695E79525
:100A3200F695E795542F309769F60DC0D801AF0DA2
:100A4200B11D4150E1E0F0E0EC0FFD1FE40FF11D9C
:100A520080818C93F3944111F1CFF801EF0DF11DD8
:100A620010820F900F900F900F900F90DF91CF9107
:080A72001F910F91FF90089500
:100A7A0080E80E9433076EEC70E080E00E94C906AD
:100A8A0080E80E94330780910301909104018E3F10
:100A9A002FEF920731F46FED70E080E00E94C906F3
:100AAA0018C0992334F464EE70E080E00E94C9060D
:100ABA0010C06AEE70E080E00E94C90680910301CE
:100ACA00909104010E9441066DEE70E080E00E9460
:100ADA00C9066FEE70E080E00E94C90680910501A8
:100AEA00909106010E9441066DEE70E080E00E943E
:100AFA00C90680EC0E9433076EEC70E080E00E9429
:100B0A00C90680EC0E94330764EF70E080E00E941F
:100B1A00C906809105019091060106970E94410637
:100B2A006BEF70E080E00E94C90680910501909108
:100B3A00060106960E9441066DEE70E080E00E9472
:040B4A00C90608953B
:100B4E0085B1897F85B984B1866084B987B18F609C
:100B5E0087B988B1807F88B92FEF83EF91E021505C
:100B6E0080409040E1F700C0000083E00E94B10693
:100B7E008FE19EE40197F1F700C0000083E00E9430
:100B8E00B10687E592E00197F1F700C0000083E01F
:100B9E000E94B10687E592E00197F1F700C00000D0
:100BAE0082E00E94B10687EC90E00197F1F700C059
:100BBE00000088E20E94330788E00E94330781E03C
:100BCE000E94330786E00E9433078CE00E943307B1
:020BDE00089578
:100BE00085B18E7F85B984B1816084B98AB18B7FEC
:100BF0008AB90E9452070E946B070E94A7050E94B3
:100C00003D050E9462066CE274E080E00E940D07E0
:100C10000E94F70678940E94270280910A01882397
:100C2000D1F310920A01F8940E945D03909304019D
:100C30008093030178940E94E4030E943D05EBCF6A
:100C40000F931F93CF93DF93CDB7DEB727970FB6E0
:100C5000F894DEBF0FBECDBF8E010F5F1F4FB801EE
:100C60000E94D104B80180E80E940D0727960FB6B4
:100C7000F894DEBF0FBECDBFDF91CF911F910F91D2
:020C80000895D5
:100C82000F931F93CF93DF93CDB7DEB727970FB69E
:100C9200F894DEBF0FBECDBF8E010F5F1F4FB801AC
:100CA2000E94D104B80180E80E94C90627960FB6B7
:100CB200F894DEBF0FBECDBFDF91CF911F910F9190
:020CC200089593
:100CC4006BEB72E080E00E940D076BED72E080E058
:100CD4000E940D076DE073E080E00E940D076DE255
:100CE40073E080E00E940D0768E573E080E00E94F5
:080CF4000D070E946004089541
:100CFC00CF93C82F662321F085B1826085B903C0DC
:100D0C0085B18D7F85B98C2F82958F700E94B1062D
:100D1C008C2F0E94B10687EC90E00197F1F700C090
:060D2C000000CF910895C4
:100D32001F920F920FB60F9211248F938091090187
:100D42008F5F80930901853029F41092090181E0B7
:100D520080930A018F910F900FBE0F901F901895EC
:100D620098B1907F8F70892B88B985E08A95F1F7C9
:100D7200000085B1846085B985E08A95F1F70000AD
:100D820085B18B7F85B985E08A95F1F700000895DA
:100D9200CF92DF92EF926B01E82E07C061E00E94D2
:100DA2007E068FEFC81AD80AE80AF6018491E7FC9A
:0E0DB20080818111F3CFEF90DF90CF900895F4
:100DC00090E007C09F5F943681F045E04A95F1F7C7
:100DD000000049B142FB222720F930E0482F50E0C3
:0E0DE0002417350779F781E0089580E0089523
:100DEE0010928000E1E8F0E01082109285001092DF
:100DFE00840083E294EF909389008093880082E0D0
:0C0E0E0086BB80936F008CE08083089509
:100E1A009B01482F09C08091C00085FFFCCF9093A9
:100E2A00C6002F5F3F4F4F4FF901949147FD9081C4
:060E3A009111F1CF0895B3
:100E40009BB19F789BB9882319F09BB190619BB9A6
:100E5000823018F09BB190629BB9833018F08BB14F
:060E600080648BB90895C7
:100E6600CF93C82F60E00E947E06C150C23030F496
:100E76008FE39FE10197F1F700C00000CF9108953D
:100E8600A29FB001B39FC001A39F700D811D1124C5
:0E0E9600911DB29F700D811D1124911D0895B4
:100EA4001092C50087E68093C4001092C00088E1C8
:0C0EB4008093C10086E08093C200089586
:100EC000EC010E9477070E947607CE010E94780706
:060ED000CE010E94740730
:0E0ED6008BB18F788BB98AB180678AB9089585
:040EE4000C9400006A
:040EE8000E946500FF
:020EEC00089567
:020EEE00089565
:020EF000089563
:020EF200FEFF01
:020EF4001600E6
:00000001FF
