:100000000C94E6010C940E020C940E020C940E0259
:100010000C940E020C940E020C940E020C940E0220
:100020000C940E020C940E020C940E020C94420BD3
:100030000C940E020C940E020C940E020C940E0200
:100040000C94F80A0C940E020C94C60A0C94A00AA4
:100050000C940E020C940E020C940E020C940E02E0
:100060000C94FE0B0C940E0220206D656E75202002
:100070002020202020202020207061726120766FB7
:100080006C76657220616C206D656E750020207243
:1000900065666572656E63696173202020207061FA
:1000A000726120766572206C612063616C69627296
:1000B0006163696F6E0020206465746563746172AA
:1000C00020636F6C6F722070617261206573706560
:1000D00072617220656C20626F746F6E0020206305
:1000E000616C696272617220202020202020706182
:1000F00072612063616C6962726172206C6F73203F
:100100003420636F6C6F726573004573637269624C
:10011000613A003D3D3D20434C41534946494341EE
:10012000444F5220444520434F4C4F524553203DAD
:100130003D3D0020792065736372696261206C69BE
:1001400073746F2E00436F6C6F71756520756E61EF
:10015000206D75657374726120000000000024003A
:1001600027002A0043616C6962726163696F6E20C7
:10017000636F6D706C65746120792067756172645E
:1001800061646120656E20454550524F4D2E0052EE
:1001900065666572656E6369612067756172646129
:1001A00064613A20004D696469656E646F20706116
:1001B00074726F6E200020423D0020473D003A20BF
:1001C000523D003D3D3D205245464552454E434936
:1001D000415320524742203D3D3D00546F646176BB
:1001E0006961206E6F2068617920756E612063619E
:1001F0006C6962726163696F6E2076616C696461BB
:100200002E00436F6D616E646F206E6F2076616C9F
:1002100069646F2E205573652063616C6962726139
:10022000722C20646574656374617220636F6C6FF7
:10023000722C207265666572656E63696173206FEA
:10024000206D656E752E00446574656363696F6E1D
:10025000206163746976612E2050726573696F6ED8
:100260006520656C20626F746F6E20706172612012
:100270006C6565722E005072696D65726F20636FD8
:100280006D706C657465206C612063616C6962726D
:100290006163696F6E2E00436F6D616E646F2064E1
:1002A000656D61736961646F206C6172676F2E2088
:1002B000457363726962616C6F206465206E756559
:1002C000766F2E0046756572612064656C20756DD1
:1002D0006272616C3A20736572766F2063656E742A
:1002E0007261646F206120393020677261646F73BE
:1002F0002E00207C204469666572656E6369613DED
:1003000000207C20506174726F6E3D00207C204C78
:100310006563747572613D00506174726F6E207513
:100320007361646F3A2000436F6C6F722063616C7D
:1003300069627261646F206D6173206365726361CD
:100340006E6F3A2000416E67756C6F2061706C694A
:100350006361646F3A2000526573756C7461646FF9
:100360003A20004D696469656E646F206D75657330
:100370007472612E2E2E000000000023002600293A
:100380000000000008000201000003040700000054
:100390000000000000010204081020408001020457
:1003A0000810200102040810200000000025002889
:1003B000002B0004040404040404040202020202E8
:1003C00002030303030303001D0DFB1311241FBECF
:1003D000CFEFD8E0DEBFCDBF12E0A0E0B1E0ECE9A6
:1003E000F1E302C005900D92A435B107D9F724E0DE
:1003F000A4E5B2E001C01D92AE3AB207E1F711E008
:10040000C5EED1E004C02197FE010E94A014C43EB5
:10041000D107C9F70E94010E0C94C1180C9400007A
:100420008F929F92AF92BF92CF92DF92EF92FF9204
:100430000F931F93FC014B01AA24BB24C52ED62E7B
:10044000E72EFF24BC2DA42F90918D04B82C992366
:1004500091F0A92FB0E0A89D9001A99D300DB89D05
:10046000300D1124B32E9C9D60011124BD2D949F4D
:1004700080011124A12F4091930420918E0430918A
:100480008F0480919004481324C0CF01880F991FD6
:100490008E0F9F1F820F931FE0919004E80FF92F9A
:1004A000F11DB082E0919104E80FF92FF11DB083A6
:1004B00020919204820F911DFC01A0831F910F9146
:1004C000FF90EF90DF90CF90BF90AF909F908F9074
:1004D0000895CF01880F991F880F991F820F931FCE
:1004E000FC01E40FF11D1082D7CF08950895AF925B
:1004F000BF92CF92DF92EF92FF920F931F93CF9311
:10050000DF936C017B018B01040F151FEB015E0172
:10051000AE18BF08C017D10759F06991D601ED9107
:10052000FC910190F081E02DC6010995892B79F7A6
:10053000C501DF91CF911F910F91FF90EF90DF9058
:10054000CF90BF90AF900895FC01538D448D252F1F
:1005500030E0842F90E0821B930B541710F0CF965D
:10056000089501970895FC01918D828D981761F08F
:10057000A28DAE0FBF2FB11D5D968C91928D9F5FA6
:100580009F73928F90E008958FEF9FEF0895FC0185
:10059000918D828D981731F0828DE80FF11D858D38
:1005A00090E008958FEF9FEF0895FC01918D228DCB
:1005B000892F90E0805C9F4F821B91098F73992750
:1005C000089584EB93E00E94D50221E0892B09F481
:1005D00020E0822F089580E090E0892B29F00E948E
:1005E000E10281110C9400000895FC01A48DA80F74
:1005F000B92FB11DA35ABF4F2C91848D90E0019665
:100600008F739927848FA689B7892C93A089B18984
:100610008C91837080648C93938D848D981306C025
:100620000288F389E02D80818F7D80830895EF9289
:10063000FF920F931F93CF93DF93EC0181E0888F9C
:100640009B8D8C8D98131AC0E889F989808185FF6C
:1006500015C09FB7F894EE89FF896083E889F9890E
:1006600080818370806480839FBF81E090E0DF9110
:10067000CF911F910F91FF90EF900895F62E0B8D63
:1006800010E00F5F1F4F0F731127E02E8C8D8E111E
:100690000CC00FB607FCFACFE889F989808185FF85
:1006A000F5CFCE010E94F502F1CFEB8DEC0FFD2FBF
:1006B000F11DE35AFF4FF0829FB7F8940B8FEA8940
:1006C000FB8980818062CFCF0F931F93CF93DF93FD
:1006D0008C01D0E0C0E0F801EC0FFD1F64916623AF
:1006E00041F084EB93E00E941703892B11F02196CF
:1006F000F2CFCE01DF91CF911F910F910895CF934B
:10070000DF93EC01888D8823B9F0AA89BB89E88939
:10071000F9898C9185FD03C0808186FD0DC00FB6DF
:1007200007FCF7CF8C9185FFF2CF808185FFEDCF5D
:10073000CE010E94F502E9CFDF91CF910895833079
:1007400081F028F4813099F08230A9F00895873043
:10075000A9F08830C9F08430B1F4809180008F7D99
:1007600003C0809180008F7780938000089584B5C6
:100770008F7784BD089584B58F7DFBCF8091B000C5
:100780008F778093B00008958091B0008F7DF9CF6E
:100790001F93CF93DF93282F30E0F901EF57FC4FE1
:1007A0008491F901EB56FC4FD491F901ED54FC4FC3
:1007B000C491CC23A9F0162F81110E949F03EC2F26
:1007C000F0E0EE0FFF1FE755FC4FA591B4918FB7F6
:1007D000F894EC91111108C0D095DE23DC938FBF03
:1007E000DF91CF911F910895DE2BF8CFCF93DF9348
:1007F00090E0FC01EB56FC4F24918D549C4FFC0182
:1008000084918823D1F090E0880F991FFC01E65A6B
:10081000FE4FA591B491FC01E755FC4FC591D491D1
:1008200061110EC09FB7F8948C91E22FE0958E2352
:100830008C932881E223E8839FBFDF91CF910895B5
:100840008FB7F894EC91E22BEC938FBFF6CF3FB7C4
:10085000F8948091BE029091BF02A091C002B09125
:10086000C10226B5A89B05C02F3F19F00196A11D16
:10087000B11D3FBFBA2FA92F982F8827BC01CD01EA
:10088000620F711D811D911D42E0660F771F881F49
:10089000991F4A95D1F708950F931F93CF93DF9334
:1008A000CDB7DEB729970FB6F894DEBF0FBECDBF28
:1008B0000E942704009194041091950420919604BD
:1008C00030919704601771078207930740F4609393
:1008D00094047093950480939604909397040091E8
:1008E0009404109195042091960430919704601B14
:1008F000710B820B930B6C32714081059105C0F234
:10090000F8948091890490918A049A838983E09174
:100910008E04F0918F04DF01119680818987909178
:100920008504E0919804F091990480919A049923A8
:1009300009F445C09081982B9887908180958923F0
:100940008F838F818C8388E08B8358856F81498565
:100950003B812C8189819A81508347FD252F3A95CF
:100960002083262F39F0441F00C000006083000060
:1009700000C0F2CF38E04D9160830000019761F72D
:10098000F0939904E093980449873B832C839A83DE
:10099000898378940E94270460939404709395044B
:1009A000809396049093970429960FB6F894DEBF2F
:1009B0000FBECDBFDF91CF911F910F910895908110
:1009C000982B98879081809589238F838F818E8340
:1009D00088E08D8358856F8149853D812E8189818D
:1009E0009A81508347FD252F00C000C0208300C09E
:1009F00000C000C000C000C060830000262F3A95F0
:100A000041F0441F000000C000C000C000C000C092
:100A1000E8CF38E04D9100C0608300C0019709F72E
:100A2000F0939904E093980449873D832E83AFCFD8
:100A30008F929F92AF92BF92CF92DF92EF92FF92EE
:100A40004B015C010E9427046B017C010E9427047A
:100A50006C197D098E099F09683E734081059105D7
:100A6000A8F321E0821A9108A108B10888EEC80E07
:100A700083E0D81EE11CF11C81149104A104B1048F
:100A800029F7FF90EF90DF90CF90BF90AF909F90AD
:100A90008F900895089520919502260F3327331FD4
:100AA00021323105ECF420918A03FC0190E080E0D2
:100AB000243069F082E00895A09195022191AC0163
:100AC0004B585D4FA40FB52FB11D2C93019686177F
:100AD00098F380919502680F6093950280E00895E5
:100AE00081E0089510928A0381E080938903109237
:100AF000640361E082E10E94C80361E083E10E9437
:100B0000C803E9EBF0E080818E7F808380818D7F58
:100B1000808388E48093B80085E48093BC000895C6
:100B2000CF93DF9391E0909374028823B9F0C09142
:100B3000B800D091BA008091BC008A7B8093BC0041
:100B400060E082E10E94C80360E083E10E94C80384
:100B50000E947205D093BA00C093B800DF91CF9184
:100B60000895CF92DF92EF92FF920F931F93CF934E
:100B7000DF93D091B30381E0D13208F09CC0C091E3
:100B8000B2030E9427046B017C0180918A038111CA
:100B90006CC082E080938A0381E0809389038FEFA9
:100BA0008093880310928703D0938603A2E9B3E071
:100BB000E6E6F3E080E0D8138DC0109265038091E3
:100BC0006503CC0FC82BC09365038091640381300B
:100BD00009F084C0109264030E9427046B017C0119
:100BE000809165038093BB0080918C0390918D036D
:100BF000A0918E03B0918F03892B8A2B8B2BA1F0B0
:100C00000E94270400918C0310918D0320918E0384
:100C100030918F036C197D098E099F0906171707FC
:100C20002807390708F442C08091BC0083FDD8CF63
:100C300085EC8093BC000E9427046B017C018091AD
:100C40008A03823009F44CC0809188038F3F09F4F5
:100C500069C080918803803209F466C0809188035E
:100C6000803309F463C084E026C080918C039091A6
:100C70008D03A0918E03B0918F03892B8A2B8B2B30
:100C800009F483CF0E94270400918C0310918D03F7
:100C900020918E0330918F036C197D098E099F0975
:100CA000061717072807390708F06FCF80918B03C5
:100CB0000E94900585E0109291031092B303109268
:100CC0009003DF91CF911F910F91FF90EF90DF90F4
:100CD000CF9008959D9191938F5F6DCF85EEA9CFB1
:100CE00080918C0390918D03A0918E03B0918F031E
:100CF000892B8A2B8B2B09F4A2CF0E942704009109
:100D00008C0310918D0320918E0330918F036C1909
:100D10007D098E099F09061717072807390708F06C
:100D20008ECFC4CF80E0C7CF82E0C5CF83E0C3CFF2
:100D30000895E091C7028091C602E81730F4F0E010
:100D4000EC5AFD4F808190E008958FEF9FEF08955A
:100D50009091C7028091C6022FEF3FEF981748F499
:100D6000E92FF0E0EC5AFD4F208130E09F5F909337
:100D7000C702C90108958091C6029091C702891BDC
:100D8000990B0895CF92DF92EF92FF920F931F93EA
:100D9000CF93DF937C01CB018A0120919003222322
:100DA00089F0EB016B01C40ED51ECC15DD0569F091
:100DB0006991D701ED91FC910190F081E02DC7017F
:100DC0000995F3CF642F0E944B05C801DF91CF91A5
:100DD0001F910F91FF90EF90DF90CF900895CF93E8
:100DE000DF931F92CDB7DEB7698320919003222352
:100DF000F9F02091B303203258F021E030E0FC01FB
:100E00003383228390E080E00F90DF91CF910895AB
:100E100080919103E82FF0E0EE56FC4F998190838A
:100E20008F5F809391038093B30381E090E0ECCFD8
:100E300061E0CE0101960E944B05F7CFCF93DF937F
:100E4000EB01FC01828591E0909390038093B203C3
:100E5000109291031092B303688181E594E00E949F
:100E6000EF0665E070E080E090E00E94180569817F
:100E700081E594E00E94EF0665E070E080E090E09C
:100E80000E941805DF91CF910C94B105CF93DF93A9
:100E900000D01F92CDB7DEB71B8290E899838A837A
:100EA000BE016F5F7F4F8BE994E00E941E070F9099
:100EB0000F900F90DF91CF910895CF93DF9300D0E3
:100EC0001F92CDB7DEB71B8220E429836A83BE015F
:100ED0006F5F7F4F0E941E0781E090E00F900F90A0
:100EE0000F90DF91CF910895CF93C62F9091A604D4
:100EF00021E0209390039093B203109291031092FB
:100F0000B303682F81E594E00E94EF066C2F81E522
:100F100094E00E94EF06CF910C94B10590E080E040
:100F20000895FC01AC01445E5F4F8FEF9FEF21916C
:100F3000822728E0BC016170772796958795672BFB
:100F400021F031E0832730EA9327215099F7E41705
:100F5000F50769F708958F929F92AF92BF92DF9243
:100F6000EF92FF920F931F93CF93DF937C0185EB5A
:100F7000E816F1041CF064EBE62EF12CD09082040C
:100F80008BE08D1508F44CC08091840408E512E0D4
:100F9000081B110987FD1395000F111F000F111F6A
:100FA00080918304C8E8D0E0C81BD10987FDD395A0
:100FB000CC0FDD1FCC0FDD1F4E010D2E000CAA083B
:100FC000BB089801012E000C440B550B2819390958
:100FD0004A095B09D7010E944B1424EB30E040E042
:100FE00050E00E942114820E931EA41EB51E8C1682
:100FF0009D062CF0E801801691060CF4E40122977E
:10100000CC0FDD1F2FB7F8948D2D90E0FC01EE0F73
:10101000FF1FE80FF91FE35AFB4FD283C1832FBF95
:10102000F0920101E09200016EE571E080E090E055
:10103000DF91CF911F910F91FF90EF90DF90BF90C4
:10104000AF909F908F900C941805CF92DF92EF9203
:10105000FF92CF93DF93C42ED12CF12CE12CD62A12
:10106000E82AD0E0C0E08091870490918804C817F6
:10107000D90728F4B701A601CE010E9410022196DB
:10108000C034D10581F780918E0490918F04892B13
:1010900041F0DF91CF91FF90EF90DF90CF900C94D3
:1010A0004C04DF91CF91FF90EF90DF90CF900895A7
:1010B0003F924F925F926F927F928F929F92AF92E8
:1010C000BF92CF92DF92EF92FF920F931F93CF9335
:1010D000DF93CDB7DEB72B970FB6F894DEBF0FBE08
:1010E000CDBF89E0EAE0F1E0DE01119601900D92BA
:1010F0008A95E1F78E010F5F1F4F2EE5C22E23E088
:10110000D22ECE010A969B878A8738E1432E512C36
:10111000612C712CF801928031808080F12CE12CBF
:101120008091870490918804E816F90630F440E035
:1011300050E0BA01C7010E941002FFEFEF1AFF0A48
:1011400020E4E216F10461F780918704909188040D
:10115000892B71F0432D50E070E060E0762F652F11
:10116000542F44276829492990E080E00E9410020A
:1011700080918E0490918F04892B11F00E944C0471
:101180006AEF70E080E090E00E94180588E1F82E98
:10119000812C912C540180910301E0E48E9FC001C9
:1011A000112480937C0080917A00806480937A007F
:1011B00080917A0086FDFCCF809178009091790033
:1011C000092E000CAA0BBB0B880E991EAA1EBB1E73
:1011D0006AE070E080E090E00E941805FA94F11057
:1011E000DACFC501B401A30192010E945314F601A4
:1011F000219331936F010D5F1F4F8A859B85801767
:10120000910709F087CF40E060E080E02B960FB6B1
:10121000F894DEBF0FBECDBFDF91CF911F910F912C
:10122000FF90EF90DF90CF90BF90AF909F908F9006
:101230007F906F905F904F903F900C942508FB013A
:1012400001900020E9F73197AF01461B570BDC01F5
:10125000ED91FC910280F381E02D09946DE571E040
:1012600084EB93E00C941F09CF93DF930E946403F7
:10127000EC010E942E098C0F9D1FDF91CF910895E4
:101280008F929F92AF92BF920F931F93CF93DF9352
:10129000CDB7DEB7A1970FB6F894DEBF0FBECDBFB6
:1012A00019A2423008F44AE08E010F5D1F4F842ED0
:1012B000912CB12CA12CA50194010E945314E62F6E
:1012C000B901CA01EA3004F5E05DD801EE938D0161
:1012D000232B242B252B79F790E080E0109729F021
:1012E000BD0184EB93E00E941F09A1960FB6F8940C
:1012F000DEBF0FBECDBFDF91CF911F910F91BF9089
:10130000AF909F908F900895E95CDFCFCF92DF92EE
:10131000EF92FF92CF93DF936C01990FEE08FF08D5
:10132000F7FE1DC06DE284EB93E00E941703EC0111
:1013300066277727CB016C197D098E099F094AE042
:101340000E944009C80FD91F0E942E098C0F9D1FB3
:10135000DF91CF91FF90EF90DF90CF9008954AE01A
:10136000C701B6010E944009EC01EECFCF93DF9395
:10137000D0E0C0E0009731F0BC0184EB93E00E9424
:101380001F09EC010E942E098C0F9D1FDF91CF9148
:1013900008956115710511F00C941F0990E080E02B
:1013A0000895CF92DF92FF920F931F93CF93DF9315
:1013B00000D01F92CDB7DEB72091C802222351F191
:1013C0008B016C0181E00E9446078BE39FE101974E
:1013D000F1F71B8280E8F82EF982FA82BE016F5F76
:1013E0007F4F8BE994E00E941E07B6018BE994E0E1
:1013F0000E94C9091B82F98280EC8A83BE016F5F5B
:101400007F4F8BE994E00E941E07B8018BE994E0BE
:101410000E94C9090F900F900F90DF91CF911F91FB
:101420000F91FF90DF90CF9008950E942E0985E4E0
:1014300091E00E946403E091E80260E671E0E5302B
:1014400038F4F0E0EE0FFF1FED5EFE4F608171811A
:1014500084EB93E00E94C90983E391E00E94340980
:10146000E091E80260E671E0E53038F4F0E0EE0F7C
:10147000FF1FED5EFE4F608171818CE691E00C9460
:10148000D10910925D0340E060E080E00E942508F1
:101490000E942E0983E191E00E9434098AE091E0E4
:1014A0000E9434098DED90E00E94340986EB90E0B3
:1014B0000E9434098DE890E00E94340988E690E0AB
:1014C0000E94340966E771E086E891E00C94D10946
:1014D00085ED8093BC0080918C0390918D03A09149
:1014E0008E03B0918F030796A11DB11D23E0B69521
:1014F000A795979587952A95D1F72091BC0024FD53
:1015000003C010928A03089540918C0350918D037B
:1015100060918E0370918F03452B462B472B69F307
:101520000097A105B10541F02AE22A95F1F700C024
:101530000197A109B109E1CF80918B030C9490052B
:101540001F920F920FB60F9211242F933F934F9338
:101550005F936F937F938F939F93AF93BF93EF931B
:10156000FF9384EB93E00E94F502FF91EF91BF910E
:10157000AF919F918F917F916F915F914F913F912B
:101580002F910F900FBE0F901F9018951F920F92E2
:101590000FB60F9211242F938F939F93EF93FF9386
:1015A000E091C403F091C5038081E091CA03F091FA
:1015B000CB0382FD1BC090818091CD038F5F8F7321
:1015C0002091CE03821741F0E091CD03F0E0EC547E
:1015D000FC4F958F8093CD03FF91EF919F918F9159
:1015E0002F910F900FBE0F901F9018958081F4CF10
:1015F0001F920F920FB60F9211242F933F938F9348
:101600009F93AF93BF938091BA029091BB02A09138
:10161000BC02B091BD023091B90223E0230F2D37F7
:1016200058F50196A11DB11D2093B9028093BA020D
:101630009093BB02A093BC02B093BD028091BE0206
:101640009091BF02A091C002B091C1020196A11D6C
:10165000B11D8093BE029093BF02A093C002B093CD
:10166000C102BF91AF919F918F913F912F910F90A8
:101670000FBE0F901F90189526E8230F0296A11D0C
:10168000B11DD2CF1F920F920FB60F9211242F933C
:101690003F934F935F936F937F938F939F93AF93FA
:1016A000BF93CF93DF93EF93FF938091B802C091E4
:1016B0008104D0E087FF24C010928500109284003E
:1016C0008091B8028F5F8093B8028091B802082E93
:1016D000000C990B8C179D0724F48091B8028C3074
:1016E000C4F18091840090918500049680349C49D7
:1016F00008F47AC08091840090918500049676C0A9
:101700008091B802082E000C990B8C179D07C4F627
:10171000E091B8028E2FEE0F990BFC01EE0FFF1F28
:10172000E80FF91FE35AFB4F808186FFC9CFE09194
:10173000B8028E2FEE0F990BFC01EE0FFF1FE80F82
:10174000F91FE35AFB4F808160E08F730E94C8034A
:10175000B7CF2091840030918500E091B8028E2FA0
:10176000EE0F990BFC01EE0FFF1FE80FF91FE35A74
:10177000FB4F81819281820F931F90938900809308
:101780008800E091B8028E2FEE0F990BFC01EE0F4E
:10179000FF1FE80FF91FE35AFB4F808186FF11C03E
:1017A000E091B8028E2FEE0F990BFC01EE0FFF1F98
:1017B000E80FF91FE35AFB4F808161E08F730E94AD
:1017C000C803FF91EF91DF91CF91BF91AF919F91AE
:1017D0008F917F916F915F914F913F912F910F90DA
:1017E0000FBE0F901F90189580E49CE9909389009C
:1017F000809388008FEF8093B802E3CF1F920F92FF
:101800000FB60F9211242F933F934F935F936F93D3
:101810007F938F939F93AF93BF93EF93FF938091A9
:10182000B900887F803609F44AC0F0F5883209F49F
:10183000A7C018F5803109F49BC0B8F4882309F4D7
:10184000F9C0883009F494C0FF91EF91BF91AF9136
:101850009F918F917F916F915F914F913F912F91C8
:101860000F900FBE0F901F901895883109F488C013
:10187000803251F78093880314C0803409F49DC0EE
:1018800040F48033B9F38833F9F68093880385EC0C
:10189000B0C0803509F485C0883509F496C0883415
:1018A00099F60E94680AD0CF883909F48CC038F5BF
:1018B000883729F050F4883611F0803729F683E014
:1018C00080938A031092B70257C0883809F47BC00E
:1018D000803919F0803809F0B7CF8091B702803293
:1018E00008F071C0E091B70281E08E0F8093B702DB
:1018F0008091BB00F0E0E956FD4F80833DC0803B06
:1019000039F0E0F4803A09F479C0883A09F09CCFC4
:1019100084E080938A031092960210929502E091DF
:10192000C202F091C30209958091950281110FC006
:1019300081E0809395021092750209C0803C09F401
:10194000A6CF883C09F4A3CF883B09F07DCFE09176
:10195000960281E08E0F80939602F0E0EB58FD4FE7
:1019600080818093BB00909196028091950229C05E
:10197000809165038093BB0085EC8093BC0064CFAD
:101980009091870380918603981758F5E09187031B
:1019900081E08E0F80938703F0E0EA59FC4F80814D
:1019A000E9CFE091870381E08E0F809387038091D8
:1019B000BB00F0E0EA59FC4F80839091870380914F
:1019C00086039817C8F285E8D8CFE091870381E0B5
:1019D0008E0F809387038091BB00F0E0EA59FC4FA3
:1019E00080838091890381115CCF81E080936403BF
:1019F00084EA8093BC0010928A0326CF85EC809302
:101A0000BC0010928A038091B702803230F4E091DA
:101A1000B702F0E0E956FD4F10826091B70270E026
:101A2000E091C402F091C50287E992E00995109215
:101A3000B7020ACF1092880334CF1092B7031092E6
:101A4000B60388EE93E0A0E0B0E08093B8039093F3
:101A5000B903A093BA03B093BB0321E331E0309301
:101A6000B5032093B40325EC30E03093C1032093F9
:101A7000C00324EC30E03093C3032093C20320EC76
:101A800030E03093C5032093C40341EC50E0509301
:101A9000C7034093C60342EC50E05093C903409300
:101AA000C80346EC50E05093CB034093CA03109216
:101AB000CD031092CE031092CF031092D003109258
:101AC0005404109253048093550490935604A093A9
:101AD0005704B093580483E491E0909352048093A8
:101AE000510410929E0410929D0485E591E090931C
:101AF0009C0480939B048EE38093A50480E68093EE
:101B0000A60480E18093A70492E09093A804109229
:101B1000860410928D0410929404109295041092F1
:101B200096041092970481E080939304809390042C
:101B300010929104909392048093850430938A04C8
:101B40002093890480EC90E00E94A61490938F0467
:101B500080938E04009709F447C020ECFC01119299
:101B60002A95E9F780E490E09093880480938704B5
:101B700086E090E090938C0480938B04809186049F
:101B8000882341F061E086E00E94F60360E086E091
:101B90000E94C803E9EBF3E0E491F0E0EE0FFF1FD1
:101BA000E755FC4F85919491909399048093980404
:101BB000EBE9F3E0E491E0939A04809181048C30A6
:101BC000E0F491E0980F909381048093820490E078
:101BD000FC01EE0FFF1FE80FF91FE35AFB4F88EBE4
:101BE0009BE092838183089510928A041092890465
:101BF0001092880410928704BBCF8FEF80938204E9
:101C00000895CF93DF93CDB7DEB72E970FB6F89434
:101C1000DEBF0FBECDBF789484B5826084BD84B52D
:101C2000816084BD85B5826085BD85B5816085BDD7
:101C300080916E00816080936E001092810080918F
:101C40008100826080938100809181008160809317
:101C50008100809180008160809380008091B1003C
:101C600084608093B1008091B00081608093B00067
:101C700080917A00846080937A0080917A008260FB
:101C800080937A0080917A00816080937A008091BD
:101C90007A00806880937A001092C100E091C403BA
:101CA000F091C50382E08083E091C003F091C1030D
:101CB0001082E091C203F091C3038FEC80831092F5
:101CC000CC03E091C803F091C90386E08083E091E2
:101CD000C603F091C703808180618083E091C603D1
:101CE000F091C703808188608083E091C603F09102
:101CF000C703808180688083E091C603F091C703A9
:101D000080818F7D808360E08EE00E94F60360E03A
:101D100082E00E94F60321E02093030180918B046E
:101D200090918C0497FD37C061E00E94F60360E05B
:101D300080918B040E94C80331E030938604209187
:101D40008D04222381F140918E0450918F045A8397
:101D50004983215019F130E050E040E06FEF7FEF10
:101D600080E090E00E942114E981FA814091890489
:101D700050918A04CF0169817A81861B970B841761
:101D8000950778F44081429FC001439F900D112434
:101D900090833196EBCF10928604D1CF30E020E0D3
:101DA000E3CF10928D0440E060E080E00E942508BF
:101DB000809182048C3008F051C061E089E00E947B
:101DC000F60380918204282F30E0F901EE0FFF1F07
:101DD000E20FF31FE35AFB4F9081907C9960908350
:101DE00010928304109284042CE0622F0E949414B9
:101DF000829FB001112430E020E0AB01420F531F5D
:101E0000FA01EE0FFF1FE40FF51FE35AFB4F90811D
:101E100096FD16C02F5F3F4F2C30310571F78111B1
:101E20000FC01092800082E08093810010928500A4
:101E300010928400B19A80916F00826080936F004D
:101E4000E09182048E2F90E0FC01EE0FFF1FE80F5F
:101E5000F91FE35AFB4F8081806480838AE590E01C
:101E60000E94AB071092C7021092C6021092910313
:101E70001092B3030E94720585E792E09093C3022B
:101E80008093C20286E792E09093C5028093C402D9
:101E90000E94720510929F048091A804823018F06D
:101EA00098E090939F048093A3041092A40462E3AB
:101EB00070E080E090E00E94180580919F048062AD
:101EC0000E94460765E070E080E090E00E941805FF
:101ED00080919F0480620E94460765E070E080E088
:101EE00090E00E94180580919F0480620E9446073E
:101EF00084E08093A0048CE00E94460781E00E9469
:101F000046078BE39FE10197F1F782E08093A104FC
:101F100086E00E94460760E080E00E9474076FEF51
:101F200088E00E94740760E281E00E9474076FEF0E
:101F300084E00E9474076FEF83E00E9474076FEFE4
:101F400082E00E9474076FEF84E00E94740760E0F3
:101F500083E00E94740760E082E00E94740781E0E1
:101F60008093C8020DE313E01A82198289819A8155
:101F70000E940B14F80181938F0129813A812F5F10
:101F80003F4F3A8329832E31310581F780913D03FC
:101F900090913E038133904CC1F480913F03843093
:101FA000A1F480914003883C81F440915903509101
:101FB0005A035A8349838DE393E00E94910721E0FD
:101FC00069817A816817790709F020E02093C902B6
:101FD0000E94410A0EE111E3212E10EC312E11E096
:101FE000E2E0CE2EF6E0DF2EA4E0BA2EB8ECAB2E67
:101FF00084EB93E00E94D502892B09F4D5C184EBD0
:1020000093E00E94B3028A3019F08D3009F0A7C125
:1020100080912B03882329F087E992E00E943409FC
:10202000E3C38091290390912A03009709F4DCC34C
:1020300087519D4FFC01108229EE32E03A832983BB
:1020400089809A8089819A810196E981FA8120812B
:102050002032A1F001900020E9F79F0121503109C1
:10206000790149815A814E155F0509F4BDC3F70115
:102070008291803231F47F011082F3CF9A83898379
:10208000DFCF69817A816E157F0509F4A3C3FB0157
:10209000808190E00E94CB15E981FA818193FA83D7
:1020A000E983EFCF67E971E0C4010E94D315892B62
:1020B00009F052C08091C902811103C08BED91E0FB
:1020C000ADCF0E942E0983EC91E00E94340973E1A8
:1020D000E72E71E0F72E2DE333E03A832983F701F1
:1020E000619171917F0184EB93E00E94C9098EEBAD
:1020F00091E00E946403E981FA816481758190E036
:1021000080E04AE00E9440098AEB91E00E9464036B
:10211000E981FA816681778190E080E04AE00E945F
:10212000400986EB91E00E946403E981FA816085B1
:10213000718590E080E04AE00E9440090E942E09EB
:1021400029813A812A5F3F4F3A8329834BE151E04D
:102150004E155F0521F648C363EA71E0C4010E9491
:10216000D315892B39F06CEA71E0C4010E94D315B4
:10217000892B91F410935D031092E802EAECF2E0EF
:10218000202F11922A95E9F740E060E080E00E945C
:1021900025080E94150A28C36EEA71E0C4010E9456
:1021A000D315892B39F06DEB71E0C4010E94D31572
:1021B000892BB1F48091C902811103C086E792E0B6
:1021C0002DCFC0925D0310925C0387E492E00E94E1
:1021D00034096FEB71E08EEC91E00E94D10904C3E9
:1021E00080915D03813009F0B7C06FED71E0C401EB
:1021F0000E94D315892B09F0AFC03091E8023983D2
:10220000343008F0F1C285EA91E00E94640349810C
:10221000E42FF0E0EE0FFF1FED5EFE4F8081918115
:102220000E94B609E091E80260E671E0E53038F41A
:10223000F0E0EE0FFF1FED5EFE4F6081718185EED5
:1022400091E00E94D1090E945808F090E8026F2D99
:1022500070E07A836983D69EF001D79EF00D112439
:10226000E653FD4F80915E0390915F0395838483D5
:10227000CB010196D89ED001D99EB00D1124A65352
:10228000BD4F80916003909161038D939C938091E9
:10229000620390916303918780878FE891E00E94A9
:1022A000640374E080E691E07F1548F089819A81AB
:1022B000880F991F8D5E9E4FFC01808191810E9445
:1022C000B6098091E8028F5F8093E802843008F4B9
:1022D00060CF3092CB022092CA02B092CC02A09280
:1022E000CD028AEC92E00E9491079093E7028093DE
:1022F000E6028EE1EAECF2E0ADE3B3E001900D928C
:102300008A95E1F73DE3E32E33E0F32E1A8219823A
:10231000F70191907F0189819A810E940B14981690
:1023200029F0692D89819A810E94131429813A81AB
:102330002F5F3F4F3A8329832E31310549F71093A0
:10234000C90210925D0384E691E00E94340965EFB2
:1023500071E08EEF91E041CF82E092E05FCE20917C
:10236000290330912A03883011F08F3759F4211551
:10237000310509F43DCE2150310930932A032093D1
:10238000290336CE2F33310560F4A9014F5F5F4F2B
:1023900050932A034093290327513D4FF90180832D
:1023A00027CE10932B0324CE80915D038230F9F465
:1023B000E3E8F3E08491E7E9F3E024912983E5EB96
:1023C000F3E034913D833323F9F081110E949F03A0
:1023D0004D81E42FF0E0EE0FFF1FE958FC4FA5916F
:1023E000B491EC9159815E2379F010925C0380E006
:1023F00090E0892B09F4F4CD0E94E102882309F4CE
:10240000EECD0E940000EBCD80915C038111EFCFF7
:1024100010935C036AE072E08BE192E00E94D109C4
:1024200083E693E00E9434090E94580880915E037D
:1024300090915F039C0150E040E02D833E834F83E9
:1024400058878091600390916103AC0170E060E077
:1024500049835A836B837C838091620390916303E9
:102460009C0150E040E029873A874B875C87EDE389
:10247000F3E01D86CC24CA94DC2C76011E86848170
:1024800095818D809E80AF80B884881A990AA108B2
:10249000B1088681978129813A814B815C81281B13
:1024A000390B41095109CA01B9010E9484142B0159
:1024B0003C01A5019401C501B4010E948414460E9B
:1024C000571E681E791E8085918529853A854B8522
:1024D0005C85281B390B41095109CA01B9010E94C9
:1024E0008414460E571E681E791E4C145D046E043B
:1024F0007F0420F43E853D87730162014E854F5F66
:102500004E873696443009F0BACF5D8550935B0311
:10251000E52EF12C66E0569FF0011124E35CFC4FA0
:10252000848195812D813E814F815885281B390BEF
:1025300041095109DA01C901B7FF07C0B095A0955B
:10254000909581959F4FAF4FBF4FC297A105B105A1
:102550007CF084E0809302018AE590E00E94AB0762
:1025600040E060E080E00E9425087E857D8760C0B5
:1025700097012F5F3F4F46E0429FC001439F900D60
:102580001124835C9C4FFC018081918129813A81D7
:102590004B815C81281B390B41095109DA01C901C2
:1025A000B7FF07C0B095A095909581959F4FAF4F0D
:1025B000BF4FC297A105B10564F686E08E9DF0017C
:1025C0008F9DF00D1124E35CFC4F8085918549853A
:1025D0005A856B857C85481B590B61097109DB01A4
:1025E000CA01B7FF07C0B095A095909581959F4F00
:1025F000AF4FBF4FC297A105B1050CF0AACF5D85C3
:1026000050930201543008F0DCC0F701E75DFE4F43
:10261000808190E00E94AB07F701EE0FFF1FEE0DE7
:10262000FF1DE35EFE4F4281618180810E9425088B
:1026300087E593E00E9464038D85853008F0C4C06F
:10264000E82FF0E0EE0FFF1FED5EFE4F80819181DD
:102650000E94B60985E493E00E9464038091000122
:10266000909101010E94860980910201843009F055
:10267000AEC087E293E00E946403E0915B0380E6D2
:1026800091E0E53038F4F0E0EE0FFF1FED5EFE4F15
:10269000808191810E94B60963E9C62E61E0D62E41
:1026A0007EE5E72E73E0F72E1A821982F60161911A
:1026B0006F0184EB93E00E9417038CE093E00E948B
:1026C0006403F701619171917F0190E080E04AE03D
:1026D0000E94400981E093E00E946403E0915B0363
:1026E0008E2F90E0FC01EE0FFF1FE80FF91F2981EC
:1026F0003A81E20FF31FEE0FFF1FEF5BFC4F60818B
:10270000718190E080E04AE00E94400982EF92E00F
:102710000E946403D7011297E0915B038E2F90E033
:10272000FC01EE0FFF1FE80FF91F49815A81E40FEA
:10273000F51FEE0FFF1FEF5BFC4F8D919C912081E9
:102740003181821B930B0E94860969817A816F5FB8
:102750007F4F7A8369836330710509F0A7CF809139
:102760000201843021F484EC92E00E9434098091CB
:1027700001018F93809100018F938BE292E09F93F0
:102780008F931F9281E18F938CE293E09F938F93BD
:102790000E94DC15E09102010FB6F894DEBF0FBE77
:1027A000CDBF80E691E0E53038F4F0E0EE0FFF1F9A
:1027B000ED5EFE4F808191816CE273E00E94D10951
:1027C00016CE6D856E87C8CE80E691E041CF88E158
:1027D00093E051CF66E372E0C4010E94D315892BC8
:1027E00009F060CC0E94410A10922A03109229033A
:1027F00010922B03FDCB80918E0490918F040E9448
:10280000421580918B0490918C0497FD03C060E089
:102810000C94F6030895F999FECF92BD81BDF89A04
:10282000992780B50895262FF999FECF1FBA92BD3A
:1028300081BD20BD0FB6F894FA9AF99A0FBE0196A1
:102840000895052E97FB1EF400940E94381457FD3E
:1028500007D00E94531407FC03D04EF40C94381494
:1028600050954095309521953F4F4F4F5F4F0895BC
:1028700090958095709561957F4F8F4F9F4F0895EC
:102880000E947514A59F900DB49F900DA49F800D7C
:10289000911D11240895B7FF0C9440140E94401418
:1028A000821B930B0895A1E21A2EAA1BBB1BFD01EC
:1028B0000DC0AA1FBB1FEE1FFF1FA217B307E4071F
:1028C000F50720F0A21BB30BE40BF50B661F771F77
:1028D000881F991F1A9469F7609570958095909557
:1028E0009B01AC01BD01CF010895A29FB001B39F30
:1028F000C001A39F700D811D1124911DB29F700D09
:10290000811D1124911D0895DB018F939F930E94D7
:102910004014BF91AF91A29F800D911DA39F900D78
:10292000B29F900D11240895991B79E004C0991F5E
:10293000961708F0961B881F7A95C9F78095089519
:10294000EE0FFF1F0590F491E02D09940F931F9354
:10295000CF93DF938230910510F482E090E0E09114
:10296000AC04F091AD0430E020E0B0E0A0E030979E
:1029700099F42115310509F44AC0281B390B24307C
:102980003105D8F58A819B816115710589F1FB01BB
:1029900093838283FE0111C04081518102811381A2
:1029A00048175907E0F04817590799F4109761F054
:1029B00012960C93129713961C933296CF01DF91C7
:1029C000CF911F910F9108950093AC041093AD0423
:1029D000F4CF2115310551F04217530738F0A90102
:1029E000DB019A01BD01DF01F801C1CFEF01F9CF91
:1029F0009093AD048093AC04CDCFFE01E20FF31FA2
:102A0000819391932250310939832883D7CF209124
:102A1000AA043091AB04232B41F42091060130919C
:102A200007013093AB042093AA0420910401309154
:102A300005012115310541F42DB73EB7409108013C
:102A400050910901241B350BE091AA04F091AB04CD
:102A5000E217F307A0F42E1B3F0B2817390778F075
:102A6000AC014E5F5F4F2417350748F04E0F5F1FD4
:102A70005093AB044093AA04819391939FCFF0E0CD
:102A8000E0E09CCFCF93DF930097E9F0FC01329711
:102A900013821282A091AC04B091AD04ED0130E03C
:102AA00020E01097A1F420813181820F931F2091A3
:102AB000AA043091AB042817390709F061C0F093DC
:102AC000AB04E093AA04DF91CF910895EA01CE17F9
:102AD000DF07E8F54A815B819E0141155105B1F799
:102AE000E901FB83EA8349915991C40FD51FEC1783
:102AF000FD0761F4808191810296840F951FE901A1
:102B000099838883828193819B838A83F0E0E0E0CC
:102B100012968D919C9113970097B9F52D913C9148
:102B20001197CD010296820F931F2091AA04309134
:102B3000AB042817390739F6309751F51092AD04D8
:102B40001092AC04B093AB04A093AA04BCCFD3837F
:102B5000C28340815181840F951FC817D90761F442
:102B60004E5F5F4F88819981480F591F5183408381
:102B70008A819B81938382832115310509F0B0CF2F
:102B8000F093AD04E093AC049ECFFD01DC01C0CF17
:102B900013821282D7CF9111089581548A5108F47B
:102BA000805E855A0895FB01DC018D9101908019AA
:102BB0000110D9F3990B0895AEE0B0E0E2EEF5E133
:102BC0000C9498180D891E898F89988D26E02C8386
:102BD0001A83098397FF02C080E090E801979E83E3
:102BE0008D83AE01455E5F4F698D7A8DCE01019672
:102BF0000E940C164D815E8157FD0AC02F813885D9
:102C0000421753070CF49A01020F131FF8011082A8
:102C10002E96E4E00C94B418ABE0B0E0E2E1F6E10B
:102C20000C948A187C013B018A01FC0117821682F0
:102C3000838181FFC8C1CE0101965C01F7019381B8
:102C4000F30193FD859193FF81913F01882309F45E
:102C500053C1853239F493FD859193FF81913F01F2
:102C6000853229F4B70190E00E94FC17E7CF912C40
:102C7000212C312CFFE1F31538F08B3211F190F457
:102C8000803209F1833229F137FC3CC020ED280F56
:102C90002A3050F536FE20C08AE0989E200D11247F
:102CA000922E06C08D3291F0803371F7689430F81F
:102CB000F30193FD859193FF81913F018111DACF5B
:102CC00021C0689431F8689432F8F2CF689433F8F0
:102CD000EFCF689434F8ECCFEAE02E9E200D11245B
:102CE000222E689435F8E4CF8E3229F436FC04C1E4
:102CF000689436F8DDCF8C3619F4689437F8D8CF5D
:102D00008836B1F2982F9F7D95549330E0F083364A
:102D1000A1F18337C1F1833509F063C02801F2E0E6
:102D20004F0E511CF801C080D180692D70E036FC37
:102D300002C06FEF7FEFC6010E94E6174C01689456
:102D400037F882010AC00C5F1F4FFFE3F983882424
:102D50008394912C6501E89437F833FE2DC0522CF2
:102D60008114910471F5552009F468CFB70180E210
:102D700090E00E94FC175A94F6CFF8018081898375
:102D80000E5F1F4FE4CF2801F2E04F0E511CF801F7
:102D9000C080D180692D70E036FC02C06FEF7FEFFC
:102DA000C6010E94F1174C018201D5CFB70180E224
:102DB00090E00E94FC172A942814190409F0B0F737
:102DC000CECFF60137FC859137FE81916F01B701B7
:102DD00090E00E94FC1751105A94F1E08F1A91086C
:102DE000BFCF843619F0893609F077C0F80137FE75
:102DF0006BC060817181828193810C5F1F4FF32DC5
:102E0000FF763F2E97FF09C090958095709561954C
:102E10007F4F8F4F9F4F689437F82AE030E0A5012D
:102E20000E942C18C82ECA188C2C432C36FE0CC0BD
:102E3000E89440F8C91440F434FE05C032FC03C0E5
:102E4000F32DFE7E4F2E892C44FE95C0FE01EC0D25
:102E5000F11D8081803309F087C0242D297E422E08
:102E6000842D8870582E43FC95C040FE8FC09C2C4A
:102E7000821418F42C0C922C981844FE91C0B701BF
:102E800080E390E00E94FC1742FE09C088E790E0D2
:102E900041FE02C088E590E0B7010E94FC17C9140A
:102EA00008F48AC0CA94D12C9FEFC91AD90ACA0C57
:102EB000DB1CF60182916F01B70190E00E94FC17C4
:102EC000AC14BD04B1F74FCF60817181072E000CA7
:102ED000880B990B0E5F1F4F92CFD32CE894D4F838
:102EE0002AE030E0853739F1232D297FD22E8F3625
:102EF00001F148F48835A9F0F701868197812B9676
:102F0000E2E10C94A618803749F08837A9F7D4FE7F
:102F100002C06894D2F820E130E00DC06894D4F883
:102F2000F6CF34FE03C0822F8660D82E20E132E037
:102F300002C028E030E0F801D7FE0FC06081718147
:102F4000828193810C5F1F4FA5010E942C18C82E0F
:102F5000CA183D2CE89437F867CF6081718190E002
:102F600080E00E5F1F4FF0CF42FC02C0839478CF09
:102F70008394839475CF842D867809F471CFF6CF2E
:102F8000B70180E290E00E94FC1783948214C0F3A2
:102F9000512C73CF522C5818821408F46ECFF8CFEE
:102FA000842D867809F47BCF8BE241FE80E247FCDA
:102FB0008DE2B70190E071CFB70180E390E00E940D
:102FC000FC179A946CCF8FEF9FEF99CFFC0105907F
:102FD000615070400110D8F7809590958E0F9F1F1B
:102FE0000895FC016150704001900110D8F7809560
:102FF00090958E0F9F1F08950F931F93CF93DF938C
:10300000182F092FEB018B8181FD09C01FEF0FEFF6
:10301000812F902FDF91CF911F910F91089582FF03
:1030200014C02E813F818C819D81281739073CF483
:10303000E881F981CF0101969983888310838E817D
:103040009F8101969F838E83E3CFE885F985812F49
:103050000995892BA1F3DACFFA01AA27283051F17B
:10306000203181F1E8946F936E7F6E5F7F4F8F4FB9
:103070009F4FAF4FB1E03ED0B4E03CD0670F781F18
:10308000891F9A1FA11D680F791F8A1F911DA11DFD
:103090006A0F711D811D911DA11D20D009F4689436
:1030A0003F912AE0269F11243019305D3193DEF6DE
:1030B000CF010895462F4770405D4193B3E00FD094
:1030C000C9F7F6CF462F4F70405D4A3318F0495D7F
:1030D00031FD4052419302D0A9F7EACFB4E0A69562
:1030E0009795879577956795BA95C9F70097610584
:1030F000710508959B01AC010A2E069457954795DA
:1031000037952795BA95C9F7620F731F841F951FCE
:10311000A01D08952F923F924F925F926F927F92DF
:103120008F929F92AF92BF92CF92DF92EF92FF92D7
:103130000F931F93CF93DF93CDB7DEB7CA1BDB0B83
:103140000FB6F894DEBF0FBECDBF09942A88398828
:1031500048885F846E847D848C849B84AA84B9842F
:10316000C884DF80EE80FD800C811B81AA81B9813B
:10317000CE0FD11D0FB6F894DEBF0FBECDBFED014F
:10318000089511E0C5EED1E004C0FE010E94A01434
:0C3190002196C63ED107C9F7F894FFCF86
:10319C005A0004010000AE048000C8000000C80002
:1031AC000000C83B02400246024B026001C800000E
:1031BC0000C8000000C8C8C800004173B40000007B
:1031CC000017037702A4027F03D502B302C70200E3
:1031DC00000000EF06C2068E079806BB06A80699EB
:1031EC0006000000005D0777028E074A050D0A00F5
:1031FC0053494E204D5545535452410043616C691F
:10320C00627261723A00566572206D656E7520535C
:10321C00657269616C00436C6173696669636164B2
:10322C006F7200524742007265666572656E636923
:10323C0061730063616C6962726172003100646574
:10324C0074656374617220636F6C6F72003200502E
:10325C00726573696F6E6520626F746F6E004C6976
:10326C0073746F2070617261206D65646972006C9B
:10327C006973746F004D696469656E646F20706169
:10328C0074726F6E00636F6D706C65746100436176
:10329C006C6962726163696F6E004D616E74656E0C
:1032AC006761206D756573747261004D49444945C1
:1032BC004E444F205247422E2E2E00416E67756CA5
:1032CC006F3A202564006D656E7500524F4A4F00B1
:1032DC00564552444500415A554C00414D415249C6
:0432EC004C4C4F00F7
:00000001FF
