:020000020000FC
:0200000033C00B
:0200040075C0C5
:0200080080C0B6
:0200380086C080
:10006800F89408E00EBF0FEF0DBF0CE204B904E0EE
:1000780005B900270AB90CE00BB900270093000165
:10008800009301010EE10093020100E000930301D7
:1000980001E00093040101E50CBD00270DBDDFD090
:1000A800A9D00AE00093690003E00CBB03E00DBB94
:1000B80002E004BD09EF07BD002706BD02E005BB4D
:1000C80002E000936E0003E005BD7894E4E6F3E0F7
:1000D800A7D0ACD060D0009104010023D9F3002749
:1000E80000930401E2D0F6CF0F930FB70F931F933D
:1000F800109100011395173008F011271093000193
:100108000DC00F930FB70F931F9310910001112388
:1001180011F01A9501C016E01093000111271093F1
:1001280001011EE11093020110E01093030111E098
:10013800109304011F910F910FBF0F9118950F9302
:100148000FB70F931F93009100010023F9F400915A
:100158000201109103010150104000930201109315
:100168000301002399F4112389F4009101010395F7
:100178000D3808F000270093010101E00093040105
:100188000EE10093020100E0009303011F910F911B
:100198000FBF0F9118951091C00017FF0895009197
:1001A800C6000D3481F00D3671F00D3089F00A303B
:1001B80079F0013350F0083340F401530AD0E0E5F8
:1001C800F4E02ED0089532D00895EAE7F4E028D07C
:1001D8000895F894009300011127109301011EE17E
:1001E8001093020110E01093030111E01093040131
:1001F8007894089500270093C0000093C50007E68F
:100208000093C40008E10093C10006E00093C20017
:1002180008951091C00015FFFCCF0093C600089503
:100228000591002311F0F5DFFBCF0895E0EBF3E033
:10023800F7DFEAEDF3E0F4DFE2EFF3E0F1DFE8E027
:10024800F4E0EEDFE6E1F4E0EBDFE0E2F4E0E8DF43
:10025800E0E3F4E0E5DFEAE3F4E0E2DF08950FE04D
:10026800112717D00CE0112714D009E0112711D05D
:100278000BE017E00ED00AE013E00BD031E01127B5
:10028800032F07D033953930D8F30CE011E001D0B3
:1002980008952A9804D0012F02D02A9A08950EBDF5
:1002A8002DB527FFFDCF2EB508950091000100233D
:1002B80011F003D0089520D008950F931F932F9322
:1002C8003F93EF93FF93E4EAF4E0222700910001C3
:1002D8000A95000F000F000FE00FF21F31E0159193
:1002E800032FD7DF33953930D0F3FF91EF913F914A
:1002F8002F911F910F9108950F931F932F933F9361
:100308004F935F936F937F938F939F93EF93FF9395
:1003180031E041E0E4EDF4E0809101019927E80F34
:10032800F91F552768E0550F7591742309F051603E
:100338006A95C9F7032F152FACDF3395440F393071
:1003480048F3FF91EF919F918F917F916F915F910A
:100358004F913F912F911F910F9108950D0A3D3DA7
:100368003D204C41424F5241544F52494F20322078
:100378002D2050524F424C454D412041203D3D3D9E
:100388000D0A4D617472697A20464331362F4D410A
:100398005837323139202D205541525420393630C2
:1003A8003020384E310D0A000D0A31202D204D65C0
:1003B8006E73616A653A205649414A4520414E5458
:1003C8004553205155452044455354494E4F0D0A35
:1003D800000032202D2043617269746120736F6EB2
:1003E8007269656E646F0D0A000033202D20436129
:1003F80072697461206775696E616E646F0D0A00B9
:1004080034202D20436F72617A6F6E0D0A003520FB
:100418002D203A330D0A000036202D2041737465D3
:10042800726973636F0D0A0037202D2058440D0A36
:1004380000004D202D2052657065746972206D652D
:100448006E750D0A3E2000000D0A4F7063696F6ECD
:100458002061706C69636164612E20496E67726502
:10046800736520312E2E37206F204D2E0D0A3E2029
:1004780000000D0A456E747261646120696E7661D0
:100488006C6964612E20496E677265736520312E30
:100498002E37206F204D2E0D0A3E20003C42A581AC
:1004A800A19D423C3C42A18DA19D423C0066FFFFBC
:1004B8007E3C1800001C421C421C000018183CFF1F
:1004C8007E3C664200AEA949A9AE000000000000CB
:1004D800000000001F2040201F0000417F41000055
:1004E8007E1111117E002040413F01007F4949499A
:1004F8004100000000007E1111117E007F020408F7
:100508007F0001017F0101007F49494941004649B7
:1005180049493100000000003E4151215E003F4042
:1005280040403F007F4949494100000000007F41A9
:1005380041221C007F494949410046494949310047
:1005480001017F01010000417F4100007F02040892
:100558007F003E4141413E000000000000000000D5
:00000001FF
