:020000020000FC
:1000000000C038E03EBF3FEF3DBF2FE72AB920E0F8
:1000100024B9002713B110FD05C011FD09C012FD60
:100020000EC01DC015D003950A3060F000270AC02D
:100030000FD0002311F409E005C00A9503C008D0D1
:10004000002700C00ED013B11770E9F701D0E2CF3E
:1000500038EC4FEF4A95F1F73A95D9F7089501D06A
:10006000D9CF003099F00130A1F00230A9F003306F
:10007000B1F00430B9F00530C1F00630C9F00730F6
:10008000D1F00830D9F00930E1F008952FE32BB911
:10009000089526E02BB908952BE52BB908952FE498
:1000A0002BB9089526E62BB908952DE62BB90895AE
:1000B0002DE72BB9089527E02BB908952FE72BB929
:0800C00008952FE62BB9089505
:00000001FF
