:020000020000FC
:0200000033C00B
:020004008AC0B0
:0200080088C0AE
:10006800F89408E00EBF0FEF0DBF00EF0AB90FE3D9
:1000780004B900E00BB905B90FE00093690000E08E
:100088000DBB03E00CBB789413E000C0BAD05C9AB7
:10009800A8D0499904C0CAD0499B16C0FACF48993C
:1000A800F8CF1330B1F3C2D0489B01C0F2CF23D0B0
:1000B80025D003E00CBB03E00DBB3CD05FD06FD074
:1000C80000E00DBB84D0E2CF1395133008F010E0A8
:1000D80088D049990AC031E00AD0499906C01395D9
:1000E800133008F010E07DD0F4CFA0D0CFCF94D05B
:1000F8003A95E9F70895489BFECF0895489901C0BD
:100108009CC04A99FBCF489901C097C04B99FBCF37
:1001180008950F930FB70F9305B10F932898299857
:100128004A99FECF4B99FCCF0F9105B90F910FBF9C
:100138000F91189566D05D9A25E0289A05D02898E1
:1001480010D02A95D1F70895103029F0113031F0E8
:1001580035E05BD0089533E058D0089534E055D0A9
:100168000895103029F0113031F034E04ED0089560
:1001780032E04BD0089533E048D0089542D05E9ADB
:10018800289A103029F0113031F038E13ED005C0FE
:1001980032E13BD002C035E138D02898089531D0FB
:1001A8005F9A299A07D0299833E02FD0289A02D04D
:1001B80028980895103029F0113031F03BE025D00F
:1001C800089537E022D0089539E01FD0089519D056
:1001D8002D9A4899FECF2AD0489B01C0FACF8BDFD1
:1001E80008952A982B982C98103029F0113029F06E
:1001F800123029F008952A9A08952B9A08952C9A76
:10020800089500E00BB905B90895489901C015C0D3
:1002180003D03A95D1F7089540E45AEF6AEF6A950A
:10022800F1F75A95D9F74A95C1F708954AE05FEF73
:100238005A95F1F74A95D9F7089500E00DBB0BB927
:1002480005B908E00EBF0FEF0DBF13E003E00CBBCC
:020258001DCFB8
:00000001FF
