:020000020000FC
:1000000000C008E00EBF0FEF0DBF0FEF0AB900E010
:100010000BB900E004B907E005B911E060E079D060
:10002000161711F0612F16D0113009F431C01230BB
:1000300009F434C0133009F437C0143009F438C05F
:10004000153009F43EC0163009F441C0173009F4E8
:1000500045C05BC0113011F451E00895123011F425
:1000600050E80895133011F45AEA0895143011F449
:1000700051E00895153011F45FEF0895163011F432
:1000800053E00895173011F450E0089550E00895BA
:100090005BB9550F09F451E056D0C1CF5BB9569505
:1000A00009F450E850D0BBCF5BB950954CD0B7CFD6
:1000B0005BB95F3F19F0550F516001C051E043D06B
:1000C000AECF5BB9569509F45FEF3DD0A8CF5BB9D1
:1000D000550F550F09F453E036D0A1CF503019F425
:1000E00008E10BB90CC0513019F404E20BB907C098
:1000F000523019F402E40BB902C001E80BB9539570
:10010000543008F050E01FD08ACF5BB950951BD017
:1001100086CF189B05C0199B0AC01A9B10C0089572
:100120001395193008F011E0189BFECF0895113097
:1001300011F01A9501C018E0199BFECF089511E047
:100140001A9BFECF08957CE004D0E3DF7A95E1F7B7
:10015000089522E03FEF4FEF4A95F1F73A95D9F72E
:060160002A95C1F7089585
:00000001FF
