:020000020000FC
:0200000033C00B
:02000400E7C053
:020008000BC12A
:020014002BC1FE
:020038004AC1BB
:1000680008E00EBF0FEF0DBF112400270093000119
:10007800009301010093020100930301009304011E
:100088000093050112D021D02DD03CD008E0009378
:1000980005017894F8942091050100270093050143
:1000A80078942223B9F349D0F5CF0FE104B9389AEF
:1000B8005298539854985A9A5B9A5C9A2898299A15
:1000C8002A982B982C984098089500270093C500EB
:1000D80007E60093C40008E00093C10006E000931F
:1000E800C20008950AE00093690003E00CBB03E036
:1000F8000DBB04E00093680000E100936D0004E08C
:100108000BBB0895002706BD02E004BD09EF07BD3B
:1001180002E005BB02E000936E0003E005BD089510
:100128001091C00015FFFCCF0093C60008950591FB
:10013800002311F0F5DFFBCF089520FF03C0F3E0A3
:10014800E0E4F5DF21FF03C0F3E0E2E5F0DF22FFA2
:1001580003C0F3E0E4E6EBDF23FF03C0F3E0E6E7E8
:10016800E6DF24FF03C0F3E0E8E8E1DF25FF03C092
:10017800F3E0EEE9DCDF0895289829982A9A2B986D
:1001880000910501016000930501089528982998B8
:100198002A982B9A0091050104600093050108959F
:1001A8002A982B9840980895FBDF289A299800915F
:1001B80005010260009305010895F2DF2898299A45
:1001C8000091050108600093050108950F930FB78A
:1001D8000F9328991DC0009102010130C9F00091C8
:1001E80004010023A9F402E30093040101E0009351
:1001F800020108E80093000103E100930101009166
:100208000301002311F4B8DF03C0CADF2898299836
:100218000F910FBF0F9118950F930FB70F9329994F
:100228001DC0009102010230C9F0009104010023B1
:10023800A9F402E30093040102E00093020108E834
:100248000093000103E100930101009103010023E1
:1002580011F49CDF03C0A4DF289829980F910FBFE1
:100268000F9118950F930FB70F934C9928C00091D1
:100278000401002321F502E3009304010091030126
:10028800002379F00027009303012C9800910201C4
:10029800013019F0023019F012C06EDF10C076DF9D
:1002A8000EC001E0009303012C9A00910501006142
:1002B8002A9900622B9900620093050171DF0F9162
:1002C8000FBF0F9118950F931F930FB70F930091BE
:1002D8000401002319F00A950093040105B10C707C
:1002E80011F0309A01C04098009103010023F9F4FD
:1002F8000091000110910101002311F41123B9F0BC
:10030800015010400093000110930101002379F47B
:10031800112369F400910201013019F0023019F03B
:1003280003C042DF01C049DF0027009302010F919B
:100338000FBF1F910F9118955075657274612061F8
:10034800627269656E646F0D0A005075657274613A
:1003580020616269657274610D0A000050756572EA
:1003680074612063657272616E646F0D0A00507566
:100378006572746120636572726164610D0A0000C0
:100388004F6273746163756C6F2064657465637420
:1003980061646F0D0A004D6F76696D69656E746FE3
:1003A80020646574656E69646F20706F7220736570
:0A03B800677572696461640D0A0044
:00000001FF
