:100000000C9434000C9449000C9449000C94490061
:100010000C9449000C9449000C9449000C9449003C
:100020000C9449000C9449000C9449000C9449002C
:100030000C9449000C9449000C9449000C9449001C
:100040000C9449000C9449000C9449000C9449000C
:100050000C9449000C9449000C9449000C944900FC
:100060000C9449000C94490011241FBECFEFD8E036
:10007000DEBFCDBF11E0A0E0B1E0E8E8F2E002C0F1
:1000800005900D92AA3CB107D9F70E9412010C9479
:1000900042010C9400008BB18F788BB98AB18067D4
:1000A0008AB908959BB19F789BB9882339F05C9AEF
:1000B000823020F05D9A823009F05E9A0895289887
:1000C000209A0C944B001092C50087E68093C400E0
:1000D0001092C00088E18093C10086E08093C20046
:1000E0000895FC019191992339F08091C00085FF1A
:1000F000FCCF9093C600F6CF0895EF92FF920F9336
:100100001F93CF93DF9300D000D01F92CDB7DEB7FF
:10011000FB0197FF07C02DE22083919581959109FE
:1001200031E001C030E020E04AE0E42EF12C01E0B3
:1001300010E00C0F1D1F020F111DB7010E942E01B0
:10014000805DD8018C93CB012F5F009781F7822FC0
:10015000320F932F981B882379F08150BF01690FCC
:10016000711D41E050E04C0F5D1F480F511DDA0139
:100170009C91DB019C93EDCFE30FF11D10820F905A
:100180000F900F900F900F90DF91CF911F910F91D3
:10019000FF90EF900895CF93DF93CDB7DEB7279709
:1001A0000FB6F894DEBF0FBECDBFBE016F5F7F4FAD
:1001B0000E947D00CE0101960E94710027960FB625
:1001C000F894DEBF0FBECDBFDF91CF910895CF93DE
:1001D000C82F289880E00E945200C11102C0289ABE
:1001E00007C0C23028F08FEF8C0FCF910C945200D3
:1001F000CF910895811103C080E091E011C081305A
:1002000019F48FE191E00CC0823019F484E491E09C
:1002100007C0833019F485E691E002C087E891E0D9
:100220000C9471000E945F000E94630088EA91E0D4
:100230000E947100C0E08C2F0E94E7008C2F0E946A
:10024000FA002FEF83ED90E3215080409040E1F7DA
:1002500000C00000CF5FC53071F7ECCFAA1BBB1BFD
:1002600051E107C0AA1FBB1FA617B70710F0A61BB6
:10027000B70B881F991F5A95A9F780959095BC01D7
:08028000CD010895F894FFCFB1
:100288005072756562613A2063616C65666163747A
:100298006F7220656E63656E6469646F0D0A005045
:1002A80072756562613A20746F646173206C617362
:1002B8002073616C69646173206170616761646156
:1002C800730D0A005072756562613A2076656E7426
:1002D800696C61646F722062616A6F2C2031204CF6
:1002E80045440D0A005072756562613A2076656E64
:1002F80074696C61646F72206D6564696F2C20325B
:10030800204C45440D0A005072756562613A2076AA
:10031800656E74696C61646F7220616C746F2C20F7
:1003280033204C45440D0A005072756562612064A3
:10033800652073616C696461732C2073696E207326
:0A034800656E736F722E0D0A00003F
:00000001FF
