:100000000C9434000C9451000C9451000C94510049
:100010000C9451000C9451000C9451000C9451001C
:100020000C9451000C9451000C9451000C94EF006E
:100030000C9451000C9451000C9451000C945100FC
:100040000C9451000C9451000C9451000C945100EC
:100050000C9451000C9451000C9451000C945100DC
:100060000C9451000C94510011241FBECFEFD8E026
:10007000DEBFCDBF11E0A0E0B1E0E6EFF2E002C0EC
:1000800005900D92AA3CB107D9F721E0AAECB1E0A6
:1000900001C01D92AC3CB207E1F70E9449010C94EB
:1000A00079010C9400008BB18F788BB98AB180678D
:1000B0008AB908959BB19F789BB9882339F05C9ADF
:1000C000823020F05D9A823009F05E9A0895289877
:1000D000209A0C9453001092C50087E68093C400C8
:1000E0001092C00088E18093C10086E08093C20036
:1000F0000895FC019191992339F08091C00085FF0A
:10010000FCCF9093C600F6CF0895EF92FF920F9325
:100110001F93CF93DF9300D000D01F92CDB7DEB7EF
:10012000FB0197FF07C02DE22083919581959109EE
:1001300031E001C030E020E04AE0E42EF12C01E0A3
:1001400010E00C0F1D1F020F111DB7010E94650169
:10015000805DD8018C93CB012F5F009781F7822FB0
:10016000320F932F981B882379F08150BF01690FBC
:10017000711D41E050E04C0F5D1F480F511DDA0129
:100180009C91DB019C93EDCFE30FF11D10820F904A
:100190000F900F900F900F90DF91CF911F910F91C3
:1001A000FF90EF900895CF93DF93CDB7DEB72797F9
:1001B0000FB6F894DEBF0FBECDBFBE016F5F7F4F9D
:1001C0000E948500CE0101960E94790027960FB605
:1001D000F894DEBF0FBECDBFDF91CF9108951F927F
:1001E0000F920FB60F9211248F938091CB018F5FE6
:1001F000853019F08093CB0105C01092CB0181E0CE
:100200008093CA018F910F900FBE0F901F90189589
:1002100010928000E1E8F0E01082109285001092C8
:10022000840083E294EF909389008093880082E0B9
:1002300086BB80936F008CE080830895CF93C82F96
:10024000289880E00E945A00C11102C0289A07C075
:10025000C23028F08FEF8C0FCF910C945A00CF91C1
:100260000895811103C080E091E011C0813019F43C
:100270008FE191E00CC0823019F484E491E007C072
:10028000833019F485E691E002C087E891E00C9490
:1002900079000E9467000E946B0088EA91E00E944A
:1002A00079000E9408017894C0E08091CA018823F7
:1002B000E1F31092CA018C2F0E941E018C2F0E9424
:1002C0003101CF5FC53089F7EFCFAA1BBB1B51E1CE
:1002D00007C0AA1FBB1FA617B70710F0A61BB70BB6
:1002E000881F991F5A95A9F780959095BC01CD015B
:0602F0000895F894FFCF11
:1002F6005072756562613A2063616C65666163740C
:100306006F7220656E63656E6469646F0D0A0050D6
:1003160072756562613A20746F646173206C6173F3
:100326002073616C696461732061706167616461E7
:10033600730D0A005072756562613A2076656E74B7
:10034600696C61646F722062616A6F2C2031204C87
:1003560045440D0A005072756562613A2076656EF5
:1003660074696C61646F72206D6564696F2C2032EC
:10037600204C45440D0A005072756562613A20763C
:10038600656E74696C61646F7220616C746F2C2089
:1003960033204C45440D0A00507275656261206435
:1003A600652073616C696461732C2073696E2073B8
:0A03B600656E736F722E0D0A0000D1
:00000001FF
