:100000000C9434000C9451000C9451000C94510049
:100010000C9451000C9451000C9451000C9451001C
:100020000C9451000C9451000C9451000C94EF006E
:100030000C9451000C9451000C9451000C945100FC
:100040000C9451000C9451000C9451000C945100EC
:100050000C9451000C9451000C9451000C945100DC
:100060000C9451000C94510011241FBECFEFD8E026
:10007000DEBFCDBF12E0A0E0B1E0ECE7F6E002C0E9
:1000800005900D92A23AB107D9F722E0A2EAB2E0B8
:1000900001C01D92A43AB207E1F70E9405030C9437
:1000A0003C030C9400008BB18F788BB98AB18067C8
:1000B0008AB908959BB19F789BB9882339F05C9ADF
:1000C000823020F05D9A823009F05E9A0895289877
:1000D000209A0C9453001092C50087E68093C400C8
:1000E0001092C00088E18093C10086E08093C20036
:1000F0000895FC019191992339F08091C00085FF0A
:10010000FCCF9093C600F6CF0895EF92FF920F9325
:100110001F93CF93DF9300D000D01F92CDB7DEB7EF
:10012000FB0197FF07C02DE22083919581959109EE
:1001300031E001C030E020E04AE0E42EF12C01E0A3
:1001400010E00C0F1D1F020F111DB7010E942803A4
:10015000805DD8018C93CB012F5F009781F7822FB0
:10016000320F932F981B882379F08150BF01690FBC
:10017000711D41E050E04C0F5D1F480F511DDA0129
:100180009C91DB019C93EDCFE30FF11D10820F904A
:100190000F900F900F900F90DF91CF911F910F91C3
:1001A000FF90EF900895CF93DF93CDB7DEB72797F9
:1001B0000FB6F894DEBF0FBECDBFBE016F5F7F4F9D
:1001C0000E948500CE0101960E94790027960FB605
:1001D000F894DEBF0FBECDBFDF91CF9108951F927F
:1001E0000F920FB60F9211248F938091A3028F5F0D
:1001F000853019F08093A30205C01092A30281E01C
:100200008093A2028F910F900FBE0F901F901895B0
:1002100010928000E1E8F0E01082109285001092C8
:10022000840083E294EF909389008093880082E0B9
:1002300086BB80936F008CE08083089598B1907F97
:100240008F70892B88B985E08A95F1F700002A9A8A
:1002500085E08A95F1F700002A9885E08A95F1F704
:1002600000000895CF93C82F662311F0299A01C08A
:1002700029988C2F82958F700E941E018C2F0E94CE
:100280001E0187EC90E00197F1F700C00000CF91CC
:100290000895CF93C82F60E00E943201C150C23050
:1002A00030F48FE39FE10197F1F700C00000CF9198
:1002B0000895CF93DF93EC018991882321F061E0C9
:1002C0000E943201F9CFDF91CF910895CF93DF9350
:1002D000CDB7DEB727970FB6F894DEBF0FBECDBF00
:1002E000BE016F5F7F4F0E948500CE0101960E9484
:1002F000590127960FB6F894DEBF0FBECDBFDF9130
:10030000CF91089585B1897F85B984B1866084B91C
:1003100087B18F6087B988B1807F88B92FEF83EF6D
:1003200091E0215080409040E1F700C0000083E060
:100330000E941E018FE19EE40197F1F700C00000CA
:1003400083E00E941E0187E592E00197F1F700C06B
:10035000000083E00E941E0187E592E00197F1F71B
:1003600000C0000082E00E941E0187EC90E001972F
:10037000F1F700C0000088E20E94490188E00E9475
:10038000490181E00E94490186E00E9449018CE018
:100390000C94490180E80E94490184E091E00E94A8
:1003A000590180E80E94490180910001909101016A
:1003B0008E3F2FEF920719F485E191E011C097FF6E
:1003C00003C08AE191E00CC080E291E00E945901F3
:1003D00080910001909101010E94660183E291E009
:1003E0000E94590185E291E00E9459018091020129
:1003F000909103010E94660183E291E00E945901FD
:1004000080EC0E94490184E091E00E94590180EC57
:100410000E9449018AE291E00E9459018091020103
:100420009091030106970E94660188E191E00E9485
:100430005901809102019091030106960E94660184
:1004400083E291E00C94590194E6282F30E089B1C1
:1004500082FB442740F950E04217530739F091508E
:1004600031F085E08A95F1F70000F1CF91E0892F16
:100470000895EF92FF921F93CF93DF9300D000D0A7
:100480001F92CDB7DEB7CE0101967C0185E0F70162
:1004900011928A95E9F75A98529AFFEF29EF80E076
:1004A000F15020408040E1F700C00000529895E3F1
:1004B0009A95F1F7000080E00E942402811103C0A8
:1004C0008FEF9FEF35C081E00E9424028823C1F3A3
:1004D00080E00E942402882399F310E081E00E94CA
:1004E0002402882369F3E5EDEA95F1F70000812FF6
:1004F000869586958695F701E80FF11D8081880F16
:1005000080834A9B02C08160808380E00E94240235
:100510008823B1F21F5F183209F78B8129819A81F4
:10052000920F980F2C81920F2D819213C9CF90E0DA
:100530000F900F900F900F900F90DF91CF911F9120
:10054000FF90EF900895289880910001909101010B
:1005500097FF0FC080E00E945A00809100019091A7
:100560000101029619F481E391E04DC08EE491E01F
:100570004AC08AE791E00E94790080910001909141
:1005800001010E94D30088E891E00E9479008091E7
:100590000201909103012091000130910101AC0111
:1005A00046505109241735073CF480E00E945A0058
:1005B000289A8EE891E027C0AC014A5F5F4F42174E
:1005C000530734F080E00E945A008AEB91E01BC090
:1005D000AC014F5E5F4F4217530734F081E00E9439
:1005E0005A0084EE91E00FC04C968217930734F0C6
:1005F00082E00E945A0082E192E005C083E00E94FE
:100600005A0081E492E00C9479000E9467005298AD
:100610000E946B000E9482010E94CA018FE692E054
:100620000E9479000E94080178948091A202882398
:10063000E1F31092A202F8940E9439029093010112
:100640008093000178940E94A3020E94CA01EDCF1A
:10065000AA1BBB1B51E107C0AA1FBB1FA617B707E8
:1006600010F0A61BB70B881F991F5A95A9F7809504
:0C0670009095BC01CD010895F894FFCFD7
:10067C00FEFF1600202020202020202020202020DB
:10068C002020202000543A2D2D00543A455252007F
:10069C00543A00430020504D3A004D6564696F3A5E
:1006AC00004573706572616E646F207072696D6560
:1006BC007261206C6563747572612E0D0A0045526F
:1006CC00524F52204448543131207C20546F646185
:1006DC0073206C61732073616C6964617320617049
:1006EC006167616461732E0D0A0054656D706572EB
:1006FC0061747572613A20002043207C20004361B4
:10070C006C65666163746F7220656E63656E646997
:10071C00646F207C2056656E74696C61646F722006
:10072C006170616761646F0D0A0043616C6566619D
:10073C0063746F72206170616761646F207C2056F6
:10074C00656E74696C61646F72206170616761645D
:10075C006F0D0A0043616C65666163746F72206192
:10076C0070616761646F207C2056656E74696C6182
:10077C00646F722042414A4F3A2031204C45440D5F
:10078C000A0043616C65666163746F72206170610D
:10079C006761646F207C2056656E74696C61646F50
:1007AC0072204D4544494F3A2032204C45440D0AA5
:1007BC000043616C65666163746F72206170616780
:1007CC0061646F207C2056656E74696C61646F7215
:1007DC0020414C544F3A2033204C45440D0A0050D4
:1007EC00756E746F206D6564696F2066696A6F3A07
:1007FC0020323220432E205072696D657261206C5C
:10080C0065637475726120656E203520732E0D0A38
:02081C000000DA
:00000001FF
