:100000000C9434000C9451000C9451000C94510049
:100010000C9451000C9451000C9451000C9451001C
:100020000C9451000C9451000C9451000C9453000A
:100030000C9451000C9451000C9451000C945100FC
:100040000C9451000C9451000C9451000C945100EC
:100050000C9451000C9451000C9451000C945100DC
:100060000C9451000C94510011241FBECFEFD8E026
:10007000DEBFCDBF14E0A0E0B1E0EEE9F9E002C0E0
:1000800005900D92A038B107D9F724E0A0E8B4E0BC
:1000900001C01D92A738B207E1F70E9490040C94AA
:1000A000CD040C9400001F920F920FB60F921124F2
:1000B0008F93809186048F5F853019F0809386043A
:1000C00005C01092860481E0809380048F910F9088
:1000D0000FBE0F901F9018951092C50087E6809371
:1000E000C4001092C00088E18093C10086E0809334
:1000F000C2000895FC019191992339F08091C000CC
:1001000085FFFCCF9093C600F6CF0895EF92FF9243
:100110000F931F93CF93DF9300D000D01F92CDB7E2
:10012000DEB7FB0197FF07C02DE2208391958195F3
:10013000910931E001C030E020E04AE0E42EF12CEA
:1001400001E010E00C0F1D1F020F111DB7010E94EE
:10015000B904805DD8018C93CB012F5F009781F7A4
:10016000822F320F932F981B882379F08150BF0183
:10017000690F711D41E050E04C0F5D1F480F511D8C
:10018000DA019C91DB019C93EDCFE30FF11D10820E
:100190000F900F900F900F900F90DF91CF911F91C4
:1001A0000F91FF90EF900895CF93DF93CDB7DEB717
:1001B00027970FB6F894DEBF0FBECDBFBE016F5FAD
:1001C0007F4F0E948600CE0101960E947A002796FA
:1001D0000FB6F894DEBF0FBECDBFDF91CF9108956B
:1001E00098B1907F8F70892B88B985E08A95F1F757
:1001F00000002A9A85E08A95F1F700002A9885E0A8
:100200008A95F1F700000895CF93C82F662311F067
:10021000299A01C029988C2F82958F700E94F00036
:100220008C2F0E94F00087EC90E00197F1F700C05E
:100230000000CF910895CF93C82F60E00E94040181
:10024000C150C23030F48FE39FE10197F1F700C055
:100250000000CF910895CF93DF93EC01899188231B
:1002600021F061E00E940401F9CFDF91CF91089560
:10027000CF93DF93CDB7DEB727970FB6F894DEBFE5
:100280000FBECDBFBE016F5F7F4F0E948600CE01C3
:1002900001960E942B0127960FB6F894DEBF0FBE81
:1002A000CDBFDF91CF91089585B1897F85B984B1A4
:1002B000866084B987B18F6087B988B1807F88B93B
:1002C0002FEF83EF91E0215080409040E1F700C094
:1002D000000083E00E94F0008FE19EE40197F1F7B7
:1002E00000C0000083E00E94F00087E592E00197E3
:1002F000F1F700C0000083E00E94F00087E592E083
:100300000197F1F700C0000082E00E94F00087EC46
:1003100090E00197F1F700C0000088E20E941B0105
:1003200088E00E941B0181E00E941B0186E00E9480
:100330001B018CE00C941B0180E80E941B0184E0EF
:1003400091E00E942B0180E80E941B018091000136
:10035000909101018E3F2FEF920719F485E191E012
:1003600011C097FF03C08AE191E00CC080E291E0E8
:100370000E942B0180910001909101010E9438019F
:1003800083E291E00E942B0185E291E00E942B0123
:1003900080910201909103010E94380183E291E073
:1003A0000E942B0180EC0E941B0184E091E00E94DE
:1003B0002B0180EC0E941B018AE291E00E942B013C
:1003C000809102019091030106970E94380188E113
:1003D00091E00E942B018091020190910301069609
:1003E0000E94380183E291E00C942B01109280006E
:1003F000E1E8F0E01082109285001092840083E220
:1004000094EF909389008093880082E086BB80936C
:100410006F008CE0808308958BB18F788BB98AB19F
:1004200080678AB908959BB19F789BB9882339F07A
:100430005C9A823020F05D9A823009F05E9A0895CD
:1004400094E6282F30E089B182FB442740F950E040
:100450004217530739F0915031F085E08A95F1F752
:100460000000F1CF91E0892F0895EF92FF921F9342
:10047000CF93DF9300D000D01F92CDB7DEB7CE016F
:1004800001967C0185E0F70111928A95E9F75A9867
:10049000529AFFEF29EF80E0F15020408040E1F7D1
:1004A00000C00000529895E39A95F1F7000080E0B3
:1004B0000E942002811103C08FEF9FEF35C081E0C1
:1004C0000E9420028823C1F380E00E94200288233A
:1004D00099F310E081E00E942002882369F3E5EDA2
:1004E000EA95F1F70000812F869586958695F701AC
:1004F000E80FF11D8081880F80834A9B02C08160D4
:10050000808380E00E9420028823B1F21F5F1832AE
:1005100009F78B8129819A81920F980F2C81920F74
:100520002D819213C9CF90E00F900F900F900F90F4
:100530000F90DF91CF911F91FF90EF900895289831
:10054000809100019091010197FF0FC080E00E940F
:1005500013028091000190910101029619F481E348
:1005600091E04DC08EE491E04AC08AE791E00E949C
:100570007A0080910001909101010E94D40088E8E6
:1005800091E00E947A0080910201909103012091F4
:10059000000130910101AC01465051092417350783
:1005A0003CF480E00E941302289A8EE891E027C074
:1005B000AC014A5F5F4F4217530734F080E00E945E
:1005C00013028AEB91E01BC0AC014F5E5F4F4217F4
:1005D000530734F081E00E94130284EE91E00FC0D3
:1005E0004C968217930734F082E00E94130282E156
:1005F00092E005C083E00E94130281E492E00C9433
:100600007A008FE692E00E947A0080910201909138
:1006100003010E94D4008FE792E00E947A0080914B
:1006200002019091030106970E94D40084E992E0B0
:100630000E947A00809102019091030106970E9426
:10064000D40086EA92E00E947A00809102019091A3
:10065000030106960E94D4008AEA92E00E947A0082
:10066000809102019091030107960E94D40086EACE
:1006700092E00E947A0080910201909103014196DC
:100680000E94D4008DEB92E00E947A0080910201DA
:100690009091030142960E94D40086EA92E00E9463
:1006A0007A0080910201909103014C960E94D4003F
:1006B00081ED92E00E947A00809102019091030105
:1006C0004D960E94D4008AEE92E00C947A008FEE50
:1006D00092E00E947A008FE093E00E947A0081E429
:1006E00093E00E947A0081E693E00E947A008CE811
:1006F00093E00E947A000C9401031F93CF93DF9341
:1007000000D0CDB7DEB78091C00087FF03C19091C4
:10071000C0008091C6009C7131F081E08093850417
:1007200082EC93E008C08B3149F41092840410925B
:10073000850486EF93E00E947A00ECC08D3019F0BA
:100740008A3009F053C010918404111105C08091C2
:100750008504882309F4DEC08CE093E00E947A00CF
:10076000112331F1809181048D3209F4C6C030E04B
:1007700001C031E0232F80E090E04AE0211790F49F
:10078000489FB001499F700D1124E22FF0E0EF5710
:10079000FB4F8081082E000C990BC097860F971F86
:1007A0002F5FECCF313031F491958195910902C0E2
:1007B00080E090E020918504211106C09C01265F15
:1007C0003F4F2734310530F08DE094E00E947A00ED
:1007D00080E005C0909303018093020181E01092B4
:1007E000840410928504811173C094C0883011F084
:1007F0008F3779F480918404882309F48BC0909119
:100800008504911187C08150809384048FE394E024
:1008100092CF8D3289F49091840491110DC0909102
:100820008504911109C081E0809384048DE2809356
:10083000810488E191E07FCF90ED980F9A3010F518
:1008400090918404992329F021E0309181043D3274
:1008500009F020E0492F50E030E02F5F3F4F241790
:100860003507C4F020918504211114C09F5F909337
:100870008404FA01EF57FB4F808389831A82CE01EB
:10088000019659CF982F9F7D923599F490918404C9
:10089000992321F081E0809385043CC090918504E8
:1008A000911133C086E190E090930301809302019F
:1008B0000FC08D3611F08D3469F780918404811159
:1008C000E9CF809185048111E5CF0E94670322C0A2
:1008D00083E494E00E947A008091020190910301E8
:1008E0000E94D4008AEE92E00E947A000E949F0249
:1008F0000E949C010E9401030DC0113009F039CF04
:100900001093850480E090E04FCF8D36D1F28D3486
:1009100009F6D7CF0F900F90DF91CF911F910895D7
:100920002898209A52980E946C000E940C020E9403
:1009300054010E949C010E9467038DE594E00E948F
:100940007A000E94F60178940E947D0380918004D1
:100950008823D1F310928004F8940E94350290937A
:1009600001018093000178940E949F020E949C01E3
:10097000EBCFAA1BBB1B51E107C0AA1FBB1FA617C9
:10098000B70710F0A61BB70B881F991F5A95A9F738
:0E09900080959095BC01CD010895F894FFCF9D
:10099E00FEFF1600202020202020202020202020B6
:1009AE002020202000543A2D2D00543A455252005A
:1009BE00543A00430020504D3A004D6564696F3A39
:1009CE00004573706572616E646F207072696D653B
:1009DE007261206C6563747572612E0D0A0045524A
:1009EE00524F52204448543131207C20546F646160
:1009FE0073206C61732073616C6964617320617024
:100A0E006167616461732E0D0A0054656D706572C5
:100A1E0061747572613A20002043207C200043618E
:100A2E006C65666163746F7220656E63656E646972
:100A3E00646F207C2056656E74696C61646F7220E1
:100A4E006170616761646F0D0A0043616C65666178
:100A5E0063746F72206170616761646F207C2056D1
:100A6E00656E74696C61646F722061706167616438
:100A7E006F0D0A0043616C65666163746F7220616D
:100A8E0070616761646F207C2056656E74696C615D
:100A9E00646F722042414A4F3A2031204C45440D3A
:100AAE000A0043616C65666163746F7220617061E8
:100ABE006761646F207C2056656E74696C61646F2B
:100ACE0072204D4544494F3A2032204C45440D0A80
:100ADE000043616C65666163746F7220617061675B
:100AEE0061646F207C2056656E74696C61646F72F0
:100AFE0020414C544F3A2033204C45440D0A000DF2
:100B0E000A50756E746F206D6564696F3A2000200F
:100B1E00430D0A43616C65666163746F723A2054CB
:100B2E00203C200020430D0A52616E676F206D65D8
:100B3E0064696F3A20002061200020430D0A426153
:100B4E006A6F202831204C4544293A200020430D5D
:100B5E000A4D6564696F202832204C4544293A209D
:100B6E000020430D0A416C746F202833204C4544FD
:100B7E00293A206465736465200020430D0A000D38
:100B8E000A2D2D2D204D454E552044452054454DC2
:100B9E005045524154555241202D2D2D0D0A0045E0
:100BAE00736372696269722070756E746F206D6501
:100BBE0064696F20282D313020612036302920794C
:100BCE002070756C73617220456E7465722E0D0AFD
:100BDE0000456A656D706C6F3A203235207365671B
:100BEE007569646F20646520456E7465722E0D0AFA
:100BFE0000723A20726573746175726172203232BE
:100C0E002043207C206D3A20766572206D656E75CE
:100C1E0020792072616E676F730D0A0052657472CF
:100C2E006F6365736F3A20626F72726172206469CE
:100C3E006769746F207C204573636170653A206329
:100C4E00616E63656C617220656E74726164610DB4
:100C5E000A000D0A4572726F722064652072656318
:100C6E00657063696F6E3A204573636170652079B4
:100C7E00206573637269626972206F747261207687
:100C8E00657A2E0D0A000D0A456E7472616461203C
:100C9E0063616E63656C6164612E0D0A0056616C52
:100CAE006F7220696E76616C69646F2E2045736376
:100CBE00726962697220756E20656E7465726F203E
:100CCE006465202D313020612036302E0D0A00084B
:100CDE0020080050756E746F206D6564696F206119
:100CEE00637475616C697A61646F3A200050726941
:100CFE006D657261206D65646963696F6E20656EE6
:100D0E00203520736567756E646F732E0D0A0000B3
:00000001FF
