:100000000C9434000C9451000C9451000C94510049
:100010000C9451000C9451000C9451000C9451001C
:100020000C9451000C9451000C9451000C94EF006E
:100030000C9451000C9451000C9451000C945100FC
:100040000C9451000C9451000C9451000C945100EC
:100050000C9451000C9451000C9451000C945100DC
:100060000C9451000C94510011241FBECFEFD8E026
:10007000DEBFCDBF12E0A0E0B1E0E4E6F4E002C0F4
:1000800005900D92A437B107D9F722E0A4E7B2E0BA
:1000900001C01D92A637B207E1F70E94FF010C9440
:1000A00030020C9400008BB18F788BB98AB18067D5
:1000B0008AB908959BB19F789BB9882339F05C9ADF
:1000C000823020F05D9A823009F05E9A0895289877
:1000D000209A0C9453001092C50087E68093C400C8
:1000E0001092C00088E18093C10086E08093C20036
:1000F0000895FC019191992339F08091C00085FF0A
:10010000FCCF9093C600F6CF0895EF92FF920F9325
:100110001F93CF93DF9300D000D01F92CDB7DEB7EF
:10012000FB0197FF07C02DE22083919581959109EE
:1001300031E001C030E020E04AE0E42EF12C01E0A3
:1001400010E00C0F1D1F020F111DB7010E941C02B1
:10015000805DD8018C93CB012F5F009781F7822FB0
:10016000320F932F981B882379F08150BF01690FBC
:10017000711D41E050E04C0F5D1F480F511DDA0129
:100180009C91DB019C93EDCFE30FF11D10820F904A
:100190000F900F900F900F90DF91CF911F910F91C3
:1001A000FF90EF900895CF93DF93CDB7DEB72797F9
:1001B0000FB6F894DEBF0FBECDBFBE016F5F7F4F9D
:1001C0000E948500CE0101960E94790027960FB605
:1001D000F894DEBF0FBECDBFDF91CF9108951F927F
:1001E0000F920FB60F9211248F93809175028F5F3B
:1001F000853019F08093750205C01092750281E078
:10020000809374028F910F900FBE0F901F901895DE
:1002100010928000E1E8F0E01082109285001092C8
:10022000840083E294EF909389008093880082E0B9
:1002300086BB80936F008CE08083089594E6282F1E
:1002400030E089B182FB442740F950E04217530760
:1002500039F0915031F085E08A95F1F70000F1CF47
:1002600091E0892F0895EF92FF921F93CF93DF9330
:1002700000D000D01F92CDB7DEB7CE0101967C0131
:1002800085E0F70111928A95E9F75A98529AFFEFA3
:1002900029EF80E0F15020408040E1F700C00000ED
:1002A000529895E39A95F1F7000080E00E941E01B4
:1002B000811103C08FEF9FEF35C081E00E941E01C6
:1002C0008823C1F380E00E941E01882399F310E087
:1002D00081E00E941E01882369F3E5EDEA95F1F7BC
:1002E0000000812F869586958695F701E80FF11D10
:1002F0008081880F80834A9B02C08160808380E078
:100300000E941E018823B1F21F5F183209F78B810A
:1003100029819A81920F980F2C81920F2D8192132F
:10032000C9CF90E00F900F900F900F900F90DF913A
:10033000CF911F91FF90EF90089528988091000130
:100340009091010197FF0FC080E00E945A008091B8
:10035000000190910101029619F484E091E04DC0F2
:1003600081E291E04AC08DE491E00E9479008091A1
:100370000001909101010E94D3008BE591E00E9461
:100380007900809102019091030120910001309148
:100390000101AC0146505109241735073CF480E0B7
:1003A0000E945A00289A81E691E027C0AC014A5F7A
:1003B0005F4F4217530734F080E00E945A008DE8E7
:1003C00091E01BC0AC014F5E5F4F4217530734F002
:1003D00081E00E945A0087EB91E00FC04C96821793
:1003E000930734F082E00E945A0085EE91E005C048
:1003F00083E00E945A0084E192E00C9479000E940C
:10040000670052980E946B0082E492E00E9479009B
:100410000E9408017894809174028823E1F310927D
:100420007402F8940E9433019093010180930001BB
:1004300078940E949D01EFCFAA1BBB1B51E107C01E
:10044000AA1FBB1FA617B70710F0A61BB70B881F64
:10045000991F5A95A9F780959095BC01CD010895F3
:04046000F894FFCF3E
:10046400FEFF16004573706572616E646F207072D2
:10047400696D657261206C6563747572612E0D0A15
:10048400004552524F52204448543131207C20546C
:100494006F646173206C61732073616C6964617350
:1004A4002061706167616461732E0D0A0054656D8B
:1004B40070657261747572613A20002043207C205B
:1004C4000043616C65666163746F7220656E636579
:1004D4006E6469646F207C2056656E74696C616417
:1004E4006F72206170616761646F0D0A0043616C13
:1004F40065666163746F72206170616761646F2007
:100504007C2056656E74696C61646F7220617061E1
:100514006761646F0D0A0043616C65666163746FA3
:1005240072206170616761646F207C2056656E740F
:10053400696C61646F722042414A4F3A2031204C09
:1005440045440D0A0043616C65666163746F7220F3
:100554006170616761646F207C2056656E74696C9C
:1005640061646F72204D4544494F3A2032204C4516
:10057400440D0A0043616C65666163746F722061A7
:1005840070616761646F207C2056656E74696C616C
:10059400646F7220414C544F3A2033204C45440D33
:1005A4000A0050756E746F206D6564696F2066690A
:1005B4006A6F3A20323220432E205072696D657280
:1005C40061206C65637475726120656E20352073DB
:0405D4002E0D0A00DE
:00000001FF
