:100000000C9434000C943E000C943E000C943E0082
:100010000C943E000C943E000C943E000C943E0068
:100020000C943E000C943E000C943E000C943E0058
:100030000C943E000C943E000C943E000C943E0048
:100040000C943E000C943E000C943E000C943E0038
:100050000C943E000C943E000C943E000C943E0028
:100060000C943E000C943E0011241FBECFEFD8E04C
:10007000DEBFCDBF0E946B000C947E000C9400008C
:100080008BB18F788BB98AB180678AB908959BB19B
:100090009F789BB9882339F05C9A823020F05D9A72
:1000A000823009F05E9A08952898209A0C944000B6
:1000B000CF93C82F289880E00E944700C11102C04A
:1000C000289A07C0C23028F08FEF8C0FCF910C9484
:1000D0004700CF9108950E945400C0E08C2F0E94E9
:1000E00058002FEF83ED90E3215080409040E1F7DE
:1000F00000C00000CF5FC53089F7EFCFF894FFCF85
:00000001FF
