:100000000C941E050C943B050C943B050C94D506F2
:100010000C943B050C94FC060C943B050C943B059E
:100020000C943B050C943B050C943B050C943B0550
:100030000C943B050C943B050C94B0060C943B05CA
:100040000C943B050C943B050C9482060C943B05E8
:100050000C943B050C943B050C943B050C943B0520
:100060000C943B050C943B05070707070707070798
:100070000707070707070707070707070707070611
:100080000606060606060606060606050505050515
:100090000505050505050504040404040404040419
:1000A000040404030303030303030303030303031D
:1000B00003EEE0D4C8BDB2A89E958D857E767069AA
:1000C000635E58534F4A4642FCEEE0D4C8BDB2A826
:1000D0009E958D85FCEEE0D4C8BDB2A89E958D8519
:1000E000FCEEE0D4C8BDB2A89E958D85FCEEE0D4B0
:1000F000C8BDB2A89E958D857E767177BD70696A00
:100100007064CD5E7A597554B84F3E4B054708432D
:10011000453FB83B5E3834353732662FBD2C3A2A1E
:10012000DB279E2582238421A21FDC1D2E1C9A1A08
:100130001B19B2175E161C15ED13CF12C011C1109A
:10014000D10FED0E170E4C0D8D0CD90B2E0B8E0A08
:10015000F6096709E0086008E80776070B07A606B6
:100160004606EC0597054605FB04B3046F0430040E
:10017000F303BB03850352032303F502CB02A3025F
:100180007D02590237021702F901DD014500FF0027
:100190003E00FF00410043004500FF003E00FF001D
:1001A000410043004500FF003E00FF0041004300C6
:1001B0004500FF003E00FF00410043004500FF00F6
:1001C0003E00FF00420043004500FF003E00FF00EC
:1001D000420043004500FF003E00FF004200430094
:1001E0004500FF003E00FF00420043004500FF00C5
:1001F000FF00FF00FF00FF00FF00FF00FF00FF0007
:10020000FF00FF00000000000000000000000000F0
:100210000000000000000000000000004000FF009F
:100220003900FF003C003E004000FF003900FF00A5
:100230003C003E004000FF003900FF003C003E0053
:100240004000FF003900FF003C00FF0000000000FC
:10025000000000000000000000000000000000009E
:10026000000000000000000000000000000000008E
:100270000000000000000000000000003E00FF0041
:100280003700FF003A003C003E00FF003700FF004F
:100290003A003C003E00FF003700FF003A003C00FF
:1002A0003E00FF003700FF00000000004500FF0097
:1002B000FF00FF00FF00FF003E00FF00FF00FF0007
:1002C000FF00FF00410043004500FF00FF00FF006A
:1002D0003E00FF00FF00FF00410043004000FF0020
:1002E000FF00FF00FF00FF00FF00FF00FF00FF0016
:1002F000FF00FF00FF00FF00FF00FF00FF00FF0006
:10030000FF00FF00FF00FF00FF00FF004300FF00B1
:10031000FF00FF00FF00FF003C00FF00FF00FF00A8
:10032000FF00FF00410040004300FF00FF00FF000E
:100330003C00FF00FF00FF00410040003E00FF00C6
:10034000FF00FF00FF00FF00FF00FF00FF00FF00B5
:10035000FF00FF00FF00FF00FF00FF00FF00FF00A5
:10036000FF00FF004500FF004A00FF005100FF00B2
:10037000FF00FF00FF00FF004A00FF00FF00FF003A
:10038000FF00FF004D004F005100FF00FF00FF0085
:100390004A00FF00FF00FF004D004F004C00FF002F
:1003A000FF00FF00FF00FF00FF00FF00FF00FF0055
:1003B000FF00FF00FF00FF00FF00FF00FF00FF0045
:1003C000FF00FF00FF00FF00FF00FF004F00FF00E5
:1003D000FF00FF00FF00FF004800FF00FF00FF00DC
:1003E000FF00FF004C00FF00FF004D00FF00FF007A
:1003F0004C00FF00FF004800FF00FF004A00FF0024
:10040000FF00FF00FF00FF00FF00FF00FF00FF00F4
:10041000520054005600FF005100FF0052005400EB
:100420005600FF005100FF00520054004A00FF0038
:100430004100FF00450046004A00FF004100FF0068
:1004400048004A004800FF004100FF004500460008
:100450004800FF004100FF004500FF004600FF008C
:100460003E00FF00430045004600FF003E00FF0045
:10047000430045004500FF003E00FF0043004500EB
:100480004500FF003E00FF00430045004100FF0023
:100490003A00FF003E0040004100FF003A00FF002C
:1004A000400041004100FF003A00FF004100FF0012
:1004B0004300FF003C00FF004300FF003E00FF0040
:1004C0003700FF003A003C003E00FF003700FF000D
:1004D0003A003C003E00FF003700FF003A003C00BD
:1004E0003E00FF00FF00FF0000000000564AFFFF33
:1004F000FFFFFFFFFFFFFFFFFFFFFFFFFFFFFFFF0C
:10050000FFFFFFFF5448FFFFFFFFFFFFFFFFFFFF5D
:10051000FFFFFFFFFFFFFFFFFFFFFFFF52464A3EC7
:10052000FFFFFFFFFFFFFFFFFFFFFFFFFFFFFFFFDB
:10053000FFFFFFFF5145FFFFFFFFFFFFFFFFFFFF33
:10054000FFFFFFFFFFFFFFFFFFFFFFFF463AFFFF39
:10055000FFFFFFFFFFFFFFFFFFFFFFFFFFFFFFFFAB
:10056000FFFFFFFF4D41FFFFFFFFFFFFFFFFFFFF0B
:100570004C40FFFFFFFFFFFFFFFFFFFF4A3EFFFF73
:10058000FFFFFFFF52465448564AFFFF5145FFFF09
:1005900052465448564AFFFF5145FFFF52465448C1
:1005A000564AFFFF5145FFFF5246544800000000E5
:1005B00000000000460048004A00FF004500FF0020
:1005C000460048004A00FF004500FF004600480082
:1005D0004A00FF00FF00FF0000000000462E41FF20
:1005E0004DFF41FF4B3541FF49FF41FF482E41FF81
:1005F00049FF41FF483541FF46FF41FF482941FF80
:1006000049FF41FF4B3041FF49FF41FF482941FF6E
:1006100044FF41FF483041FF46FF41FF462E41FF66
:100620004DFF41FF4B3541FF49FF41FF482E41FF40
:1006300049FF41FF483541FF46FF41FF482941FF3F
:1006400049FF41FF4B3041FF49FF41FF482941FF2E
:1006500044FF41FF483041FF46FF41FF4B2EFFFF63
:1006600050FF4DFFFF353CFF3AFF3CFF3D2EFFFFA3
:100670003FFFFFFF4B35FFFF49FFFFFF4B2CFFFF05
:10068000FFFF50FFFF33FFFF4DFFFFFFFF2CFFFF7A
:10069000FFFFFFFF4B33FFFF49FFFFFF4B2AFFFF29
:1006A00050FF4DFFFF313FFF3DFF3FFF412AFFFF5E
:1006B00042FFFFFF4B31FFFF4DFFFFFF4E29FFFFC2
:1006C000FFFF50FFFF30FFFFFFFFFFFF4D29FFFF40
:1006D000FFFF4EFFFF30FFFFFFFFFFFF4B2EFFFF2F
:1006E00050FF4DFFFF353CFF3AFF3CFF3D2EFFFF23
:1006F0003FFFFFFF4B35FFFF49FFFFFF4B2CFFFF85
:10070000FFFF50FFFF33FFFF4DFFFFFFFF2CFFFFF9
:10071000FFFFFFFF4B33FFFF49FFFFFF4B2AFFFFA8
:1007200050FF4DFFFF313FFF3DFF3FFF412AFFFFDD
:1007300042FFFFFF4B31FFFF4DFFFFFF4E29FFFF41
:10074000FFFF50FFFF30FFFFFFFFFFFF4D29FFFFBF
:100750004FFF46FF5130FFFF54FFFFFF482EFFFFC2
:10076000FFFF46FFFF35FFFF52FFFFFF482CFFFF53
:10077000FFFF46FFFF33FFFF52FFFFFF482AFFFF47
:10078000FFFF46FFFF31FFFF52FFFFFF492C55FFE0
:1007900048FF54FF463352FF44FF50FF482EFFFFEF
:1007A00046FF52FFFF35FFFFFFFFFFFF482CFFFF13
:1007B00046FF52FFFF33FFFFFFFFFFFF482AFFFF07
:1007C00046FF52FFFF31FFFFFFFFFFFF552CFFFFEA
:1007D00057FFFFFF543355FF00000000562FFFFF67
:1007E000FFFFFF2F55FFFFFFFF2FFFFF53FFFFFF0F
:1007F000FF2FFFFF512BFFFFFFFFFF2B4FFFFFFFDF
:10080000FF2BFFFF4EFFFFFFFF2BFFFF4C28FFFFDB
:10081000FFFFFF28FF28FFFFFF28FFFF4A28FFFFF9
:100820004E28FFFF4C21FFFFFFFFFF21FF21FFFFAD
:10083000FF21FFFFFF21FFFF562155FF562FFFFF2E
:10084000FF23FFFF56FF55FF562FFFFFFF23FFFF3C
:1008500056FF55FF582DFFFF5621FFFF55FFFFFFA5
:10086000532FFFFFFF23FFFF53FF51FF532BFFFFCA
:10087000FF1FFFFF53FF51FF5328FFFFFF1CFFFF28
:1008800051FF53FF552DFFFF5621FFFF51FFFFFF83
:10089000532FFFFFFF23FFFF53FF55FF562FFFFF8F
:1008A0005623FFFF56FF58FF5A2BFFFFFF1FFFFF86
:1008B00055FF56FF582DFFFF5621FFFF55FFFFFF45
:1008C000532FFFFFFF23FFFF53FF51FF532BFFFF6A
:1008D000FF1FFFFF53FF51FF5328FFFFFF1CFFFFC8
:1008E00051FF53FF552DFFFF5621FFFF51FFFFFF23
:1008F000532FFFFFFFFFFFFFFF2FFFFF00320032EC
:100900003E00000039000000000038000000370001
:1009100000003500FF0032003500370000300030A5
:100920003E000000390000000000380000003700E1
:1009300000003500FF00320035003700002F002F87
:100940003E000000390000000000380000003700C1
:1009500000003500FF00320035003700002E002E69
:100960003E000000390000000000380000003700A1
:1009700000003500FF00320035003700002600324D
:100980003E2600FF392600260000382600003726C4
:1009900000003526FF263226352637FF002400309A
:1009A0003E2400FF392400240000382400003724AE
:1009B00000003524FF243224352437FF0023002F84
:1009C0003E2300FF39230023000038230000372393
:1009D00000003523FF233223352337FF0022002E6A
:1009E0003E2200FF39220022000038220000372476
:1009F00000003524FF243224352437FF3E1A3EFF01
:100A00004A1A00FF451A001A0000441A0000431A4F
:100A10000000411AFF1A3EFF411A43FF3C183CFFF9
:100A20004A1800FF45180018000044180000431839
:100A300000004118FF183EFF411843FF11241FBE5C
:100A4000CFEFD8E0DEBFCDBF13E0A0E0B1E0E6EF2E
:100A5000F4E102C005900D92A236B107D9F723E068
:100A6000A2E6B3E001C01D92A83CB207E1F70E94E4
:100A700020070C94790A0C94000068516934A0F1A5
:100A8000882379F180E020E01092B1001092B0004C
:100A90002B981092B2006934A0F58093B30082E4E1
:100AA0008093B0002093B1000895EE0FFF1FE65031
:100AB000FF4F8591949110928100109280002998A7
:100AC00010928500109284006934D8F490938900C4
:100AD0008093880080E4809380008AE08093810086
:100AE000089590E080E0E7CF262F30E0F9018823D9
:100AF000E1F2EF54FF4F849128593F4FF9012491BF
:100B0000C3CF089560E080E00E943D0560E081E091
:100B10000E943D05EDEAF3E0118210820895FC0188
:100B20009191992339F08091C00085FFFCCF90937B
:100B3000C600F6CF089585B5811105C016BC82E0C8
:100B400085BB84E085BD089594EA9093BC009091A4
:100B5000BC0097FFFCCF9EE49093BB0094E8909379
:100B6000BC009091BC0097FFFCCF88608093BB00D5
:100B700084E88093BC008091BC0087FFFCCF84E9AF
:100B80008093BC000895CF93C82F84600E94A40571
:100B900085E08A95F1F700008C2F0E94A40587EC70
:100BA00090E00197F1F700C00000CF910895CF9336
:100BB000DF93C82FD62F807F611181600E94C3050B
:100BC0008C2F8295807FD11181600E94C305D11145
:100BD00009C0C150C23030F48FE39FE10197F1F7B3
:100BE00000C00000DF91CF9108950F931F93CF9322
:100BF0008B01811114C080E860E00E94D705C0E13C
:100C0000F8018081882369F00F5F1F4F61E00E9427
:100C1000D705C150A9F7CF911F910F91089580EC8E
:100C2000EBCF80E2F3CF6BE171E080E00E94F5054D
:100C300067E271E081E00C94F5051092C7030E9411
:100C400082058FEF80930001809301011092BE0313
:100C50001092C3032FB7F8948091BA039091BB030D
:100C6000A091BC03B091BD032FBF8093BF039093AD
:100C7000C003A093C103B093C20381E0809302013B
:100C80000E949B050C941306CF93DF93CDB7DEB77C
:100C900061970FB6F894DEBF0FBECDBF91E1EAE3D6
:100CA000F1E0DE01119601900D929A95E1F791E342
:100CB000811192E39A83E7E3F1E06F3F49F0E62F79
:100CC000F0E0EE0FFF1FED5FFE4F0190F081E02D91
:100CD000DE0115969F01245F3F4F9191992321F0EA
:100CE0009D932E173F07C9F7BE016F5F7F4F0E948C
:100CF000F50561960FB6F894DEBF0FBECDBFDF914C
:100D0000CF9108951F920F920FB60F9211242F9337
:100D10008F939F93EF93FF939091C0002091C60013
:100D20008091C5039C71C1F48F5F8F739091C6034E
:100D3000981791F0E091C503F0E0EE59FC4F208345
:100D40008093C503FF91EF919F918F912F910F9009
:100D50000FBE0F901F90189581E08093C403F2CFCF
:100D60001F920F920FB60F9211248F939F93AF9300
:100D7000BF938091BA039091BB03A091BC03B09143
:100D8000BD030496A11DB11D8093BA039093BB03CC
:100D9000A093BC03B093BD03BF91AF919F918F917E
:100DA0000F900FBE0F901F9018951F920F920FB6C5
:100DB0000F9211242F933F934F935F936F937F93E1
:100DC0008F939F93AF93BF93EF93FF9381E08093B3
:100DD00002010E949B05FF91EF91BF91AF919F91FE
:100DE0008F917F916F915F914F913F912F910F90D4
:100DF0000FBE0F901F9018951F920F920FB60F9273
:100E000011242F933F934F935F936F937F938F930F
:100E10009F93AF93BF93EF93FF930E94D506FF91EB
:100E2000EF91BF91AF919F918F917F916F915F9162
:100E30004F913F912F910F900FBE0F901F901895DB
:100E4000CF93DF93CDB7DEB729970FB6F894DEBF07
:100E50000FBECDBF8AB183708AB98BB18C6F8BB94D
:100E600084B18A7F84B985B1856085B985B1857F74
:100E700085B984B18A6084B90E9482051092B90054
:100E800088E48093B80084E08093BC002FEF30E7C3
:100E900042E0215030404040E1F700C0000080E3D4
:100EA0000E94C3058FE19EE40197F1F700C00000A6
:100EB00080E30E94C305A7E5B2E01197F1F700C0F7
:100EC000000080E30E94C305E7E5F2E03197F1F707
:100ED00000C0000080E20E94C30587E592E0019710
:100EE000F1F700C0000060E088E20E94D70560E0F2
:100EF00088E00E94D70560E081E00E94D70560E0AD
:100F000086E00E94D70560E08CE00E94D705109231
:100F1000C0001092C50087E68093C40086E08093ED
:100F2000C20088E98093C10082E084BD99EF97BD3B
:100F300015BC80936E0085E080936B009CEF9093CE
:100F40006D008BBB809368000E941D0683B7817F74
:100F500083BF78948BE491E00E948F058091C40355
:100F6000882379F08FB7F8949091C5039093C603C6
:100F70001092C4038FBF1092A2038DEB91E00E94E8
:100F80008F058824839452E0752E0CED17E060E9FC
:100F9000E62EF12C7CEFC72E78E0D72EE0EAAE2EBD
:100FA000B12C9091C6038091C503981709F4CFC066
:100FB000E091C603F0E0EE59FC4F80819091C603AA
:100FC0009F5F9F739093C6039FE9980F9A3180F4B7
:100FD0008052803231F3893021F3803581F41092D0
:100FE000A2030E941D068FED91E00E948F05D9CFCC
:100FF0008D3011F08A3069F71092A203D2CF83347A
:1010000019F48092A203CDCF9091A2031092A20373
:10101000992309F499C09FEC980F943008F094C07C
:1010200040ED942E980E0E9482058092B10391E0CB
:10103000991238C0D092B003C092AF03B092B303FC
:10104000A092B203ADE7B0E0B093AC03A093AB03C2
:101050006FEE71E080E00E94F5058FEF91E00E9455
:101060008F056FEE72E081E00E94F5051092B503E6
:101070001092B4030E949B052FB7F8948091BA0395
:101080009091BB03A091BC03B091BD032FBF80938F
:10109000B6039093B703A093B803B093B9039092AB
:1010A000C7037FCFB2E09B1216C01093B00300932A
:1010B000AF03F092B303E092B203EDE7F0E0F093F8
:1010C000AC03E093AB0367E272E080E00E94F505B9
:1010D00086E392E0C4CFF3E09F121CC02CED35E014
:1010E0003093B0032093AF0340E051E05093B3033B
:1010F0004093B2038DE790E09093AC038093AB03F1
:101100007092B10366E672E080E00E94F50587E721
:1011100092E0A5CFACE8B1E0B093B003A093AF03E9
:10112000E8E2F2E0F093B303E093B20320EB30E0A7
:101130003093AC032093AB0369EA72E080E00E9435
:10114000F5058AEB92E08BCF8FEF92E04ECF8FB711
:10115000F894C090BA03D090BB03E090BC03F09029
:10116000BD038FBF8091C703882309F4B6C04090A8
:10117000B6035090B7036090B8037090B903D701DD
:10118000C60184199509A609B709B7FD27C1409181
:10119000B2035091B3035B834A838091B40390916F
:1011A000B5038417950760F08091B103823008F48D
:1011B0008EC081508093B1031092B5031092B40396
:1011C0003DEA232E33E0332E19861886D301C2015F
:1011D0000C97A109B1098C839D83AE83BF830091D5
:1011E000AF031091B0038090B4039090B503540105
:1011F000AA0CBB1CE885F985EA0DFB1DE00FF11F69
:10120000B491B983BF3F09F441C06B2F88850E9418
:101210003D0581E0E981E11101C080E0D1018C93BD
:10122000B981BB2399F10A0D1B1DE885F9850E0FC5
:101230001F1F21E030E0C401820F931F4A815B81B0
:101240008417950748F4F901EE0FFF1FE00FF11F17
:10125000E491EF3F09F4BFC0E885F985EE0FFF1F69
:10126000EE0FFF1FED55FC4FA091AB03B091AC0307
:101270000E946A0A2C813D814E815F81620F731F3B
:10128000841F951F60837183828393833FEF231AAA
:10129000330A488559854130510509F097C05FEF01
:1012A000851A950A9092B5038092B4038091AB039E
:1012B0009091AC03480E591E611C711C4092B603FC
:1012C0005092B7036092B8037092B90350CF0E9456
:1012D0001D0680E293E00E948F058FB7F89440913D
:1012E000BA035091BB036091BC037091BD038FBFE3
:1012F0001091C703111154C08FB7F89410920201D6
:101300008FBF89B193B1909580958695869590FD14
:10131000806492FD80689091C303981709F494C08B
:101320008093C3034093BF035093C0036093C103F2
:101330007093C2034091BE0390E080E03FEF3A8398
:10134000898321E030E0082E01C0220F0A94EAF7D9
:10135000242321F05A815F3F39F48A830196883033
:10136000910571F78FEF8983009100018091010150
:101370009A81981389C0FF24F394A981A01301C016
:10138000F12CB981B01396C0FF2051F09A819F3F94
:1013900009F06FC0A981AF3F09F06BC00E9413062E
:1013A000F8940E949B059091C6038091C503981301
:1013B00069C08091C403811165C083B7816083BF18
:1013C0007894889583B78E7F83BFC8CDA1E0B0E0C5
:1013D000B987A88704CF2F5F3F4F2DCF8091AD03F2
:1013E0008823C1F08091A3039091A403A091A50349
:1013F000B091A603A7019601281B390B4A0B5B0B82
:10140000DA01C901B7FD06C060E080E00E943D0539
:101410001092AD038091AE03882309F45ECF8091D2
:10142000A7039091A803A091A903B091AA03C81A99
:10143000D90AEA0AFB0AF7FC50CF60E081E00E947B
:101440003D051092AE0349CFC090BF03D090C003BA
:10145000E090C103F090C2034C195D096E097F0949
:10146000443151056105710508F464CF8093BE03D2
:1014700061CF6A8180E00E944406698181E00E9418
:1014800044068ECF78946ACDBA8160E0BF3F31F0D8
:101490002A81E22FF0E0ED5EFE4F608180E00E9445
:1014A0003D053A81309301014981401709F46ECF1F
:1014B000FF24F39459815F3F29F0E52FF0E0ED5EC2
:1014C000FE4F1081612F81E00E943D05898180934C
:1014D00000015ACFA29FB001B39FC001A39F700D1E
:1014E000811D1124911DB29F700D811D1124911D2C
:0614F0000895F894FFCFFF
:1014F600FFFF014003440348034C035003550359BF
:10150600035D033C3E4041434547485069616E6F69
:10151600206C6973746F0050756C736120756E6111
:10152600207465636C61002D2D0042313A20202025
:1015360020202020202020202020000D0A50696134
:101546006E6F206C6973746F2E20393630302062CE
:10155600617564696F732E0D0A43313A204D6567D4
:10156600616C6F76616E69613B2043323A2044724A
:1015760061676F6E626F726E3B2043333A20426C36
:101586006F6F64792054656172733B2043343A204F
:1015960047616D65206F66205468726F6E65733B98
:1015A60020503A207069616E6F2E0D0A000D0A45B3
:1015B60072726F7220554152542E205265656E76B6
:1015C60069617220636F6D616E646F2E0D0A000D86
:1015D6000A4D6F646F207069616E6F2E0D0A0043AD
:1015E600313A204D6567616C6F76616E6961000DF9
:1015F6000A43313A204D6567616C6F76616E6961A9
:10160600202832302073292E20503A2064657465D4
:101616006E65722E0D0A0043323A20447261676F7E
:101626006E626F726E000D0A43323A204472616731
:101636006F6E626F726E2028313820732C20313223
:10164600302042504D292E20503A20646574656E34
:1016560065722E0D0A0043333A20426C6F6F64792F
:10166600205465617273000D0A43333A20426C6F51
:101676006F64792054656172732028363420732C88
:10168600203132302042504D292E20503A206465B8
:1016960074656E65722E0D0A0043343A2047616DFB
:1016A60065205468726F6E6573000D0A43343A20E4
:1016B60047616D65206F66205468726F6E65732092
:1016C60028393720732C203137302042504D292EAF
:1016D60020503A20646574656E65722E0D0A0050BE
:1016E6003A20766F6C766572207069616E6F000DB8
:1016F6000A436F6D616E646F733A2043312C204349
:10170600322C2043332C2043342C20502E0D0A003B
:101716000D0A46696E2064652063616E63696F6EAB
:101726002E204D6F646F207069616E6F2E0D0A005A
:10173600446F3400526534004D693400466134000C
:10174600536F6C34004C61340053693400446F3578
:02175600000091
:00000001FF
